:020000040000fa
:080000000414040000000000dc
:020000040000fa
:1004000000000000000000000000000000000000ec
:1004100000000000000000000000000000000000dc
:1004200000000000000000000000000000000000cc
:1004300000000000000000000000000000000000bc
:10280000ffffff00ffffff004f862000807f2400b6
:1028100000018800000000000a0007001100070006
:10282000000020000000e000020032000000020072
:10283000000000006e1d0200000000000040da00f1
:102840000000fe004440a900801b20000000e000c2
:102850000300320000002000a00188004440a800ce
:102860000000060040e821000100200016003700ab
:1028700062004000e0804800910188009001ba00a9
:1028800062004000e0804800910188009002ba0098
:1028900062004000e08048000002eb006028e10098
:1028a00005003a008301e9000700330003800900b6
:1028b0000059eb00040037006128e10001003200fc
:1028c0000082eb0005000700910188001001ba00aa
:1028d0000200e000e6ff3a000000050091018800d8
:1028e0008002780062004000e08048003559ba005c
:1028f0008301e900080032002559ba008301e9008c
:10290000050032000400e000f4ff320015d9ba00df
:0c2910008301e900f1ff3a00000006001e
:020000040000fa
:020000040005f5
:0457f800be130000dc
:020000040000fa
:020000040005f5
:0457fc007f3e0000ec
:020000040000fa
:10291c002a950000f6940000c89400002e95000043
:10292c000501000009020000a101000009010000de
:10293c00a100000005090000190100002903000096
:10294c001500000025010000950300007501000032
:10295c008102000095010000750500008101000056
:10296c00050100000930000009310000158100004c
:10297c00257f00007508000095020000810600000c
:10298c00c0c000002e0300004d0000006f000000ce
:10299c0075000000730000006500000020000000be
:1029ac00490000006e0000002000000061000000e3
:1029bc0020000000430000006900000072000000cd
:1029cc00630000006c0000006500000020000000a7
:1029dc0044000000650000006d0000006f00000066
:1029ec00340300004d00000069000000630000008b
:1029fc00720000006f00000063000000680000001f
:102a0c00690000007000000020000000540000006d
:102a1c006500000063000000680000006e0000000c
:102a2c006f0000006c0000006f00000067000000e9
:102a3c007900000020000000490000006e0000003a
:102a4c00630000002e0000000403000009040000d5
:102a5c0009020000220000000101000000c000007b
:102a6c003209000004000000000100000301000016
:102a7c00020000000921000011010000000100000b
:102a8c002232000000070000058100000303000053
:102a9c000001000012010000100100000000000005
:102aac0000080000d8040000000000000300000033
:102abc000102000000010000fcfc0000fc00000012
:082acc000404000004000000f6
:020000040000fa
:102ad4008180fb00120020000111dd000248780013
:102ae4000000060010418000904178008380fb00c4
:102af40070418000808f50000200360080417800d1
:102b04000200370001005000704188000002eb0011
:102b140006003700504180000181fb000184200041
:102b240062d87800504188000402e80084407800ac
:102b3400834f5200f7ff390001418000704180004b
:102b44000000e0000e00320080c0b300804878002e
:102b54000141800000842000900098001041800012
:102b6400104090000068a30002003a0080ccb3003b
:102b74000100370080c8b3009040980000000600b0
:102b84008084200090009800804180000000e000d4
:102b94000100320000000100604180000070a100cb
:102ba4006041880000000600a081200021c0b3001d
:102bb40090cf10001a003a0094c4bf000058a3003c
:102bc400170032001041800081c0b30090cf100084
:102bd40013003a0010409000c043b20041c3b30058
:102be400814f50000e003a000141800011409000d6
:102bf4000004e0000a003500808420009000980062
:102c04000001eb00018420008084200061707900c1
:102c14000201e800e80f510010003200f9ff37000c
:102c24000041eb00a08120000248780081c0b3007d
:102c34000041800001487800014180008084200028
:102c440090009800c0c8b3009040980030418000c4
:102c5400124098003041800012409800604180008a
:102c64000078a30007003200804180000000e000eb
:102c74000100320000000100604180000070a100ea
:102c84006041880000000600a081200021c0b3003c
:102c940090cf100001003a0092ff3700c2ff3700c6
:102ca400b041800083002000e70f50000b003e007d
:102cb40080017800b1812000114078000004e00018
:102cc40002003a0010c0b30003003700e14f500087
:102cd40002003a0020c0b3008048780032418000ee
:102ce40012409000c818de000140700010419800a6
:102cf4003041800003487800b04180000300500058
:102d0400b041880000842000c0408800a0418000b9
:102d1400610060000001eb0011003a00000178003e
:102d240006003700c040800091418000315878008f
:102d3400c0408800914188000201e800830f5100df
:102d4400f8ff3a0000000600c04080009141800076
:102d540031587800c0408800914188000201e800a1
:102d6400830f5100f8ff3a0000000600889fbe0060
:102d740094a4a90060418000a24180000208b2002e
:102d84000c003a000078a3002d003a0081c0b30083
:102d940000418000014878000141800080842000c7
:102da40090009800c0c8b3009040980041c8b30098
:102db40020003700000178000208b2002f003a001a
:102dc4008884200009c8b3001804e0001c003d00fa
:102dd40071428000b0418000808f500002003100b9
:102de40070428000b0418800adff070011c0b300fd
:102df400a08120000148780081c0b3000041800018
:102e0400014878000041800018009800194098009b
:102e1400104180000148780010418000180098009b
:102e2400194098000184200030418000110098006e
:102e340081ccb30030418000114098000f0037006e
:102e440021c0b300a08120000148780030418000f7
:102e54000248780082ccb3003041800012409800d0
:102e640081c0b30000418000014878000141800026
:102e74000084200090009800924098004f04be0007
:102e840000000600881f7800304180001040900048
:102e94004600de00610460009183200080c0b3001e
:102ea400914f100009003a008084200020409000d7
:102eb4000080fb00b024880000c1b3009604e20047
:102ec40001003a0040c0b30080487800a08120008f
:102ed40011c0b30090cf100013003a00008420000a
:102ee40031418000900098006dff0700b081200000
:102ef40021c0b30090cf100004003a0041c8b300d1
:102f040030418000114098000800370031418000b2
:102f140080ccb3000804e0000100320080c8b30094
:102f240090409800010037001fff07004f0478000d
:102f3400000006008184200000c8b300914f1000f7
:102f440021003a002283200000ccb30020419800e5
:102f540031409000e24f500008003200e34f50002f
:102f64000e003200e14f500015003a0000552900d0
:102f740090418800200120000f003700214090007c
:102f84000080fb000000400041492900e0807800f7
:102f94009141880011009000070037002140900003
:102fa4000080fb0000004000e148290060807800b8
:102fb400904188001080fb00b041880000000600aa
:102fc4000040eb002041980000000600028420002d
:102fd4000040eb00004978001041980081842000f3
:102fe400914178007fc061000080fb00e10f500038
:102ff4000d003200e20f50000f0032000000e0002c
:103004001f003a00a04180000070a000a041880089
:103014001204a000b0408000e10f500018003a00f4
:103024001214a00016003700a04180000070a00018
:10303400a041880012003700a04180000070a00069
:10304400a041880041409000c14090008180fb0075
:103054006f006000c708de0000004000010040006f
:103064004200dd000180200001004000104090007b
:103074000028a3000200320010c0b3000049780009
:10308400a14180000178a3000700320000842000e1
:10309400904188000100a000a141880021c0b30034
:1030a4002083200041409800000006008184200015
:1030b40021409000e14f50000d003a00114178008a
:1030c4007f4061000a003a00a04180000070a00027
:1030d400a041880011409000e34f500002003a00e4
:1030e40010002000010037000000eb00b040880011
:1030f40081842000214090000004e0002a003a006e
:10310400114078007f416000e24f510026003a00f0
:10311400414090006f40600023003200a0418000d5
:103124000070a000a041880002427800838420003f
:1031340043409000c34090008180fb006f0060001a
:1031440000004000c708de00010040004200dd002e
:10315400018020000101400013409000e34f500023
:1031640002003a0040c8b3000c003700434090000e
:103174006f00600000004000a14a200001004000f0
:103184001010a100434090000004e00002003d0044
:1031940000c4b3000100370080ccb3001041980094
:1031a4000442e900e1ff3a00000006009283200097
:1031b400a04180000070a000a0418800408220004f
:1031c4000048eb008184200080832000a14190000e
:1031d40003487800214090000004e00003003a0016
:1031e40000c1b300004978000000060000c2b3002b
:1031f40000497800ae1d0400000000008184200016
:1032040002c6b3001140610039003a001140900039
:103214000080fb0001002000eb0f5000e08f5800fd
:1032240033003e000060010016003700160037002e
:103234002f003700140037002d0037000600370038
:103244000c003700280037000c0037000a00370054
:103254000e0037001a003700a04180000070a00063
:10326400a041880081c0b300908320000148780009
:10327400000006002fff3700ccff370080832000ba
:103284000700370051ff370088ff37008084200093
:10329400404090000080fb0041822000010040007b
:1032a40090418800a141800012c0b3002083200017
:1032b400424098001108b300a141880000000600b4
:1032c400a04180000070a000a041880082842000fa
:1032d400424090000080fb00418220002241900087
:1032e40002f0780000000600ac1d0200000000009f
:1032f4000000060031418000114090000004e0000d
:1033040002003d000040eb0090409800b081200096
:103314000048eb00a08120000048eb008000eb0097
:10332400b14188002083200021409800b3ff0700aa
:10333400a81d0200000000008cfe37004081200020
:103344001080fb00800078000120a1000100e00053
:103354000c003a00c00fb2000180200001004000c0
:10336400104188000041880010409000c043b20022
:1033740041c3b300814f500001003a00ddff370024
:1033840041fe3700e88f500001003a00bdfe0700ff
:10339400000006000080fb00800140000180fb006b
:1033a400008041004200dd00028020000201400054
:1033b400124090000070a10010419800c0812000cc
:1033c4000104e000010032006082200082317800b4
:1033d400124090000060a000104198000000060018
:1033e400889fbe00804478000184fb000080fb00bd
:1033f40000004000a14a200008b078000838a3006b
:10340400030032008040eb0009407800e1ff070030
:103414000828a3000300320011c0b300094078005b
:10342400dcff07004f04be00000006000004e000bb
:103434000b003a0081c0b3000041800001487800cd
:10344400014180008084200090009800c0c8b3002f
:103454009040980041c8b300304180000a00370012
:103464000080fb00000040008180fb000100400060
:103474004200dd00018020000100400090409000e7
:1034840042c8b30082c070001140980000000600da
:103494000080fb000104e0000300320080004000d3
:1034a400608220000200370080004000c0812000bc
:1034b40061027800144090000064a2001042980059
:1034c40012029800034a7800144090000044b200ad
:1034d400104298001440900081c8b300014070006d
:1034e400104298000400780000000600f00f20004d
:1034f4007024880050248800f0092000802488006b
:10350400b00f2000602488008804a80001802000f7
:103514004808de00c02488009424a8009424a9004c
:103524009624ef000000eb008018eb008018eb00fd
:103534000000e800e40f5000fbff3a00d000200038
:10354400502588000200370080c0b3008ae4b70029
:103554008ac4bf00e8406000fbff3a0020832000db
:1035640021409800a08220002140980094a4a90042
:10357400408020003041880080832000014878008a
:10358400908320000148780000000600aac4bf0010
:103594000018a3000d0032001241800092409000f8
:1035a40000c8b30080cf500007003a0030418000cb
:1035b4009040900040c8b30080cf500002003a0011
:1035c4006840400010419800aa24a90040c0b300fc
:1035d4008ae4b700000006008284a80000c1b3009a
:1035e4008ae4b700a01d040000000000a21d020030
:1035f400000000008284a90000c1b30080e4b70089
:1036040000000600881f7800908320001004e0006a
:103614000d003a009424ef008c24ef0001003700e1
:103624009404a80094c4bf000008a300fcff320067
:1036340010c0b3009183200080487800a624ef00d6
:1036440000012000402588009183200010c0b300b1
:10365400914f100007003a00f00f2000502488001a
:103664008c24ef008c04a8008c84a80020c0b30034
:103674008048780080c4bf000048a30004003200e2
:1036840082c4bf000048a30001003200d7ff070036
:1036940088c4bf000018a30049003a008ac4bf00d0
:1036a4000008a300130032008cc4bf000008a3006c
:1036b400100032008dff070041c0b300908320004a
:1036c4000148780002802000808420001040880097
:1036d40080c0b3000049780012409000634060004d
:1036e4001041980012409000c1c8b300014070001e
:1036f400104198008ac4bf000048a30004003200af
:103704008cc4bf000048a30001003200b2ff0700d0
:103714008ac4bf000028a300070032008cc4bf0085
:103724000028a30004003200a41d020000000000d1
:1037340040c0b3008ae4b7008a44e20003003d00bd
:103744008c44e20001003d0090ff07008ac4bf00e2
:103754000018a300070032008cc4bf000018a300a7
:1037640004003200a61d020000000000f00f20003b
:10377400702488009083200031c0b30090cf1000e3
:103784000f0036008cc4bf000038a3000c003200c8
:1037940048c0b3008ac4bf000038a3000800320048
:1037a40090248000418120008048780080c0b300cc
:1037b4008ae4b700e1fe07000844e900f5ff3a0097
:1037c4004f04780000000600000f2000c422b60059
:1037d400c022b600d8c2a800d8e2a800dac2bf004e
:1037e4004600de00d1852000e1486000dac2bf0057
:1037f4000080fb004700de00c1852000804878007f
:10380400618520000040eb00a040980090409800a3
:103814008048780010002000d04288000000eb00af
:10382400a042880000000600804280000000e00002
:1038340002003a0000712200804288008042800029
:103844000001e9008242880088c4bf000018a30078
:10385400130032000200e00049003a00412c20002d
:10386400914078000104a200e1c06000c4c2bf001e
:103874000004a10001407000c4e2b700412c200004
:1038840091407800e1c0600081c04000c4c2bf0024
:103894000014a10001407000c4e2b700000006005b
:1038a40090832000904078000104e00002003a0078
:1038b400c402a90019003700e1cf500002003a0009
:1038c400c402a80007003700e2cf500002003a000b
:1038d400c402a80011003700e4cf500003003a00ee
:1038e400c402a900c422a80000000600f0cf5000c2
:1038f4000c003a000200e00021003a00412c2000b4
:10390400914078000104a200e1c06000c4c2bf007d
:103914000004a10001407000c4e2b700c422a90061
:103924000000060000c2b30080cf500014003a002b
:103934000200e00012003a00412c2000914078007f
:103944000104a200e1c06000c4c2bf000004a100e1
:1039540001407000c4e2b700c4c2bf000004a2006a
:103964006140600000404000412c200091407800fc
:103974000114a10080c0700001007800c4e2b70007
:1039840000000600dac2bf000080fb004700de0032
:10399400c28520009280fb00810f50000700320096
:1039a400dac2bf000080fb004700de000049780057
:1039b40010002000da42e20001003d000000eb00ac
:1039c40000000600d0428000e10f500014003a00cd
:1039d40096852000e0c0b300964f10001500360015
:1039e400628520000049eb002586200015427800fe
:1039f4000480fb0023562900e7006000e1c0790041
:103a0400114198000080e8006700600060c0790000
:103a140020419800844ae800004beb000500370081
:103a2400618520000040eb00a04098009040980081
:103a340080487800a04280000000e00003003200cb
:103a4400104090000004e0000f0035006085200065
:103a5400a283200010497800904090001141980002
:103a6400204090002041980033c0b30011c0b3003f
:103a7400014078004a1a020000000000a0428800b9
:103a8400908520001048e8000000060066ff07004b
:103a940090832000f1c1b30090cf10000d003600d8
:103aa40088c4bf000018a3000a003a00b5ff07004d
:103ab4000000e000060032008000eb00d0428000ed
:103ac4000000e00001003a0011002000d14288000b
:103ad400bcff0700000006002ca3ef00781a0200c8
:103ae4000000000038ff0700041b02000000000073
:103af400e6ff0700fcff3700dac2bf004600de0025
:103b040061006000d28520009280fb00810f50008c
:103b140007003200dac2bf004600de0061496000df
:103b2400dac2bf00110020000068a30001003200c7
:103b34008000eb0001007800000006000000060091
:103b4400000006000000060000000600d41d04006a
:103b5400000000000000060051c1b30010c0b30013
:103b6400f2190400000000009444a80080702000b2
:103b7400904288008000eb008100e8008070200003
:103b8400808f5000fcff3a000000eb009042880058
:103b94009444a9000000060000000600000006008e
:103ba4000000060081842000114178007f406100fc
:103bb400e14f500052003a00414090000004e00000
:103bc4004f003a0011409000e64f50001f003a00a9
:103bd400b14090007c40400080cf50000e00320085
:103be4000040e80080cf50001500320000c0e9001a
:103bf40080cf500015003a008083200011c0b3002c
:103c040090cf100011003a00005429009041880020
:103c140090002000070037008083200012c0b3000a
:103c2400904f110009003a00604929009041880032
:103c340020032000b041880001ccb300010037000c
:103c440001c8b30020832000214098008284200012
:103c540000c6b3009240600000c2b30080cf5000a1
:103c640027003a0012409000e34f50001600320043
:103c740003003e00e24f500021003a0005003700e7
:103c8400ea4f500009003200eb4f50001c003a008c
:103c940015003700f08520009041880010002000b6
:103ca400b041880011ccb3000c00370000c8b30049
:103cb40021832000a0409800f0852000324190002c
:103cc4000248780000000600e0852000904188004a
:103cd40010002000b041880011c8b30020832000e8
:103ce400214098000000060000c8b3002183200092
:103cf400a0409800e085200022419000024878000e
:043d040000000600b5
:020000040000fa
:103d0800620800000200000002000000000000003d
:103d1800500800000e00000000000000100800001d
:103d28004000000000000000000800001000000033
:103d3800000000005e080000040000000000000011
:043d48000000000077
:020000040000fa
:043d4c000000fe0075
:00000001FF
