:020000040000FA
:0600000075EF02F0120092
:0600080004EF04F01200F9
:060018000CEF04F01200E1
:06002A00010014050000B6
:080030009D0000000300000028
:0800380009D91100D8CFE4FF43
:10004000E0CFE4FFE46E02D9E550E5CFE0FFE5CF75
:10005000D8FF100004D84BEC04F01FD8FCD70F0ECB
:10006000C1120FEC04F035EF00F0F00E8B16941671
:100070008050080B01E0010E0001856F8050080BD5
:1000800001E0010E866F8B6B8BC08AF08BC089F00C
:10009000010E876F8C6B8D6B120079D8200E0001DA
:1000A000605D0FE36450020B01E0120061D80009AB
:1000B00007E00001875102E0000E01D0010E876FBA
:1000C00001D812000001870514E188510E0816E2DC
:1000D000896B070E00019D15C0D8F5CF8AF0020E7E
:1000E0009D25070BBAD8F5CF8BF09D2B0001886BAF
:1000F00005D08B6B8BC08AF08BC089F08C518D1131
:1001000002E1000E08D08CC0E9FF8DC0EAFFEF507D
:10011000800B01E0010E00091BE189C023F28AC0B7
:1001200024F28BC025F2030EE66E230EE66E020E5D
:10013000E66E010EE66EE66E2FEC08F0006E050E20
:10014000E15E0050F3CF8CF0F4CF8DF00001882BEE
:1001500012008050080B01E0010E0001855D07E0F0
:100160008050080B01E0010E856F80A6010C000C89
:100170008050080B01E0010E0001865D07E0805011
:10018000080B01E0010E866F80A6010C000C000137
:100190009E519F1104E1100E9E6F270E9F6F9E07C8
:1001A000000E9F5B64A208D09E519F1130E18B70BE
:1001B0008B50010B13E128D00001605102E18B90BC
:1001C00023D0600502E18B8009D0020E605D02E160
:1001D0008B801AD0040E605D03E18B908B8212003D
:1001E000100E605D06E100019E519F1110E18B70C1
:1001F0000BD0200E605D0BE100019E519F1107E1C5
:100200008B708B50010B02E08B9212008B821200DC
:10021000120012001200120034EF01F012001A0E48
:10022000E66E010EE66EE3EC07F0E552E5521200D1
:1002300064840001080E8E6F070E8F6F8E07000E0C
:100240008F5B8E518F11FAE164941200DACFE4FFD4
:10025000E652E552E5CFDAFF1200F76A0E0FF66EAE
:08026000080EF722080012004D
:08026800020110511F0B0108F7
:1002700001E01200145101E01200060E115D21E1AF
:100280001351230A1BE0010A0CE0030A1AE10001E2
:10029000610517E10001680E716F030E726F090EA0
:1002A00009D0000161050DE10001DE0E716F030E42
:1002B000726F320E746F756BC00E02D00001800E2B
:1002C000736F02011051600BE842E842E842E842D5
:1002D000E842010801E0120011510B0A2AE0080A65
:1002E0001DE0090A15E0080A09E00B0A05E0080A02
:1002F00001E012009FEF01F0A0EF01F000019A0E63
:10030000716F000E726F010E746F756BC10E0FD09E
:100310000001800E736F13C29AF0120000019B0E51
:10032000716F000E726F010E746F756B810E736FBB
:1003300012000001800E736F12C29BF012001200B7
:040340001200120095
:0C0344001201100100000008D8040000A5
:1003500003000102000109022200010100C032096C
:1003600004000001030102000921110100012232F1
:1003700000070581030300010403090434034D0051
:100380006900630072006F0063006800690070001C
:10039000200054006500630068006E006F006C0070
:1003A0006F0067007900200049006E0063002E0096
:1003B0002E034D006F00750073006500200049009A
:1003C0006E0020006100200043006900720063009D
:1003D0006C0065002000440065006D006F000501A1
:1003E0000902A1010901A10005091901290315004C
:1003F00025019503750181029501750581010501AE
:10040000093009311581257F750895028106C0C024
:08041000560378037C03B003DE
:080418002A0EF66E000EF76ECD
:10042000000EF86E00010900F550956F0900F550B7
:10043000966F03E1956701D03DD00900F550906FAC
:100440000900F550916F0900F550926F09000900FD
:10045000F550E96E0900F550EA6E0900090009003F
:10046000F550936F0900F550946F09000900F6CF1D
:1004700097F0F7CF98F0F8CF99F090C0F6FF91C0C1
:10048000F7FF92C0F8FF0001935302E1945307E095
:100490000900F550EE6E9307F8E29407F9D797C07C
:1004A000F6FF98C0F7FF99C0F8FF00019507000E0E
:0604B000965BBFD71200AD
:0A04B600FE0EE3CFE9FFFF0EE3CFD7
:1004C000EAFFE9CFF3FFEACFF4FFFB0EE35003E1CD
:1004D000FC0EE35009E0FB0EE30602E2FC0EE3062D
:0A04E000FD0EE350EE6EF1D712009E
:0604EA0011EE00F021EE0E
:1004F00000F0F86A049C0CEC02F003EC04F02AEC27
:0605000000F0FBD7120021
:0A05060000EE00F00F0EEE6AEA624C
:04051000FDD7120001
:03051400000000E4
:0608000075EF02F012008A
:020806001200DE
:060808001CEF00F01200DD
:02080E00FCFCF0
:06081000FC0004040400DA
:060818001EEF00F01200CB
:02081E00D9EC13
:1008200008F00F015F6B626A9F0E5B6FFB0E606EDC
:10083000648C649C5C6BBDEC08F0DF6ADF50006E7A
:10084000016A040E005C000E015810E2DF50040D36
:10085000F3CFE9FFF4CFEAFF000EE926020EEA2209
:10086000EE6AEE6AEE6AEE6ADF2AE8D70F01160E2C
:10087000536F62A604D0030E83EC08F0FAD7000190
:10088000736B786B6498040E6B6F020E6C6F616B08
:10089000606BDCEF08F0D9EC08F0000160510BE16F
:1008A000646A606A64B602D06486FCD70001010EF7
:1008B000606F140E616E600508E164BA06D0626A6A
:1008C000606A60806088020E606F6250040B04E012
:1008D0006050040B01E066D864B24AD06250010B4C
:1008E00011E06050010B0EE09ADF0001040E606F12
:1008F0000201100E026F020E036F080E016F006BF3
:100900008C0E00136250100B04E06050100B01E0DD
:1009100043D86250400B08E06050400B05E00AEC01
:1009200001F0060E83EC08F06250200B04E06050EA
:10093000200B01E01FD86250020B07E06050020B51
:1009400004E00BEC01F00F015F6B040E0001605D31
:100950000FE360A60DD0DF6A040EDF5C09E262A639
:1009600007D063CF80F0030ECEDB26D8DF2AF4D782
:10097000DCEF08F00F0153A10CD0ECDBEF50800846
:1009800007E1CBDBEF50840803E1E4DB8C0EEF6E74
:100990005391060E83EF08F06084040EB4DB64828A
:1009A00008EF01F0649209EC01F0609462A403D0B6
:1009B000020EA9DBFBD71200FD0E0001801518E125
:1009C0007E0E8015E8407F0B040DF3CF63F0F4CF6B
:1009D00064F0000E6327020E642363C065F064C0F8
:1009E00066F02CEC09F002E1FEEF04F00FEF05F0E9
:1009F000FD0E8015040801E11AD812008EDBEF50BD
:100A0000800B02E08ADBEF6A00016F6B706B746B26
:100A1000756B736B84D80CEC01F0AEEF06F0020E30
:100A20000001705D02E138EF07F044EF05F0C1DB33
:100A300074DBEF50400B01E0010EDF6E080E000189
:100A4000605D0CE112C25CFF0F015C51000803E223
:100A50000001100E02D00001040E606F700512E15B
:100A6000EDDBB4D9020E00016F5D03E156DB840EAD
:100A700007D0DF5003E151DBC80E02D04EDB880EF9
:100A8000EF6E01D001D898D3D4DB030EE126020E1D
:100A90000001705D2BE16450100B28E05BDBEE522F
:100AA000EF50006E016A080E001820E101501EE1AF
:100AB000D3DB1CE1ADDBEF50800B18E1A9DBADDB34
:100AC000DF6ADF50006E016A080E005C000E0158FC
:100AD00020E2DF5073DBDF50EA6A100FE96E020E8E
:100AE000EA22E552E750EF6EDF2AEBD7706B9BDB13
:100AF000EF6A000E6B19006E010E00C0DBFF020EE4
:100B00006CC0DBFF010EDBCFE9FF020EDBCFEAFF9B
:100B1000EF6A030EE15C02E2E16AE55207D30201EB
:100B20001051600BE842E842E842E842E84200091E
:100B300001E0120011510C0A43E00B0A3FE00C0ADD
:100B400031E0010A22E00B0A1EE0020A1CE0030A5F
:100B500018E0080A10E0010A0CE00F0A08E0030A96
:100B600001E012000001738F080E606F12003EEF6B
:100B700006F091EF07F00001610E716F000E726FC9
:100B80000CD079EF06F0E1EF05F014510001716F20
:100B9000726B620E7127000E72237381010E746FE7
:100BA000738F12000001738F02011451EA6A620F01
:100BB000E96E000EEA2212C2EFFF12000EEF01F002
:100BC000120037DB050EE1260201120510E110517B
:100BD0001F0B00090CE10001738F030E0201115D70
:100BE00004E10001010E7F6F02D000017F6B020162
:100BF00012513EE110511F0B02083AE114510F0B44
:100C0000000936E00001738F040EDB6A020EF36EFA
:100C1000040EDBCFF4FFF350F45C2AE2D7DA01E0F4
:100C2000010E9DDA030E115D03E182DA840E1CD001
:100C300014510F0B016A530F006E0F0E0122020EAA
:100C400000C0DBFF030E01C0DBFF020EDBCFE9FFBC
:100C5000030EDBCFEAFFEE90ED5214AF03D068DA5B
:100C6000400E02D065DAC80EEF6E040EDB2ACED736
:100C7000050EE15C02E2E16AE55258D2800E020103
:100C8000105D36E10001C00E736F02011351030ABB
:100C90001EE0010A09E0030A29E10001440E716F18
:100CA000030E726F120E1FD0A8DA100EF626040E75
:100CB00095DA020E0001F76A7125F66E7251F7227D
:100CC0000900F5CF74F00A00F5CF75F0120095DA3F
:100CD000120EF626040E82DA71C0F6FF72C0F7FF1C
:100CE0000800F5500001746F756B12000001736B02
:100CF000120018DA0201186B196B10511F0B020A4F
:100D000011E0030A0CE0010A19E10001738F0201EE
:100D1000188100017F0512E1020118830FD0000144
:100D2000738F0CD00001738F51DA01E0010E17DAD6
:100D3000FFD9EF50040B02E0010E186F000173AFF2
:100D400007D0180E716F020E726F7381020E746FEE
:100D5000020EE15C02E2E16AE552E8D1649800012A
:100D600073BF07D078AF02D092DA28D05CDA840E55
:100D700026D078BF2AD0020110AF23D000017451D1
:100D80000201165D000175510201175904E216C2F5
:100D900074F017C275F01AD80001010E706FACD94B
:100DA000D3D9800EEF6ED6D9EE52080EEF6ED2D99F
:100DB00034DAD0D9800EEF6E41DAAFD9C80EEF6EBB
:100DC0001200000164DAC80EEF6E1200ABD9000108
:100DD000080E745D000E75590DE274C0DEFF75C01B
:100DE000DDFF6F5102E1010E03D06F0506E1020E37
:100DF0006F6F03D0080EDE6EDD6A8FD9EF928DD94A
:100E0000EF908BD9010EDB50EF1287D9EE52DFCF76
:100E1000EFFF000EDB50745F010EDB50755B180EA8
:100E20007D6F020E7E6F73B10FD0EED91BE071C0E3
:100E3000F6FF72C0F7FF712B000E72230800F55009
:100E4000A5D9F3E2DB06F1D7DFD90CE071C0E9FFE9
:100E500072C0EAFF712B000E7223EF5097D9F4E2B3
:100E6000DB06F2D7020EE15C02E2E16AE5525ED1F6
:100E700059D970D9EE52EFCFDFFFDFCF00F000502D
:100E80000001795D000E7A5903E279C0DFFF09D0D5
:100E9000DF50006E016AE850795D796F01507A5930
:100EA0007A6F010EDB6ADF50F36E010EDBCFF4FFC9
:100EB000F350F45C10E2010EDB5080D976C0E9FFFC
:100EC00077C0EAFF762B000E7723E552E750EF6EEE
:100ED000010EDB2AE8D7000ED8807955000E7A552E
:100EE0000CE2C9D937D9EF50400B03E191D9C80EB4
:100EF00002D08ED9880EEF6E0ED08AD98ED97B5152
:100F00007C1107E005D07CC0FAFF00017B51F96E2F
:100F1000FADF0001789F020EE15C02E2E16AE5522D
:100F200005D10001738F29D9010EE66EE66AE66AE3
:100F3000620EE66E000E97D912C261F002011251E4
:100F400004E10001100E606F12000001200E606FBE
:100F50000FEF01F0E7D8000EDE6E020EDD6EFD0E23
:100F6000DB50040DF3CF02F0FE0EDB50080DF35002
:100F70000224006E016A020E0F0B05E0D8900132C8
:100F80000032E806FBE1D89000360136D8900036F2
:100F9000013674D90050EE260150ED22C9D8EF9EDB
:100FA000FD0EDB5002E14ED901D051D9EA22DECF4D
:100FB000EEFFDDCFEDFFBCD8EF8C020EE15C02E26C
:100FC000E16AE552B3D0AED8FE0EDB50016A530F92
:100FD000006E0F0E012200C0DEFF01C0DDFFFD0E1E
:100FE000DB50E66EA5D8E552E750EE6EED6AFD0ED9
:100FF000DBA402D0E66AFAD8FD0EDBA203D0010E14
:10100000E66EF4D8020EE15C02E2E16AE5528ED0AF
:1010100089D8FE0EDB5004E106D9840EEF6E19D09C
:10102000FD0EDBCFE6FFFE0EDB50E824E552E724A1
:10103000040DF3CF00F0F4CF01F0000E0026020EF5
:10104000012200C0DEFF01C0DDFF840E71D8E85030
:10105000EF12020EE15C02E2E16AE55267D062D86B
:10106000FD0EDB5002E0F3D801D0ECD8EA22EECF3F
:10107000DEFFEDCFDDFF5CD8EF7C5AD813D9FB0E35
:10108000DBCFEEFFFC0EDBCFEDFF52D8EE52FA0EB7
:10109000DBCFEFFF400E4CD8E850EF16880E48D853
:1010A000E850EF12FD0EDB5002E0D1D801D0CAD8D3
:1010B000EA22DECF00F0DDCF01F000C0F3FF01C077
:1010C000F4FF020EE15C02E2E16AE5522FD0B1D8F2
:1010D000010EF36EFC0EDB5004E0D890F336E80608
:1010E000FCE1F31C006EFD0EDBCFE9FFFE0EDBCF53
:1010F000EAFF0050EF16C7D08BD8EE52080EEF6E05
:1011000087D852EF09F0E66E620EE66E0F0EE66EBD
:10111000DEDFE552E552E55212006BC0E9FF6CC01C
:10112000EAFF120086D8020EE1261200E16EABD073
:10113000DECFE9FFDDCFEAFF1200FE0EEA6ADB3404
:10114000FE0BEA36E96E1200100EEE6E020EED6E28
:1011500008EF09F063C0E9FF64C0EAFF1200026E05
:1011600014510F0BE8240224040DF4CF01F086D8AB
:10117000F350EE260150ED221200000EE66EE66AF4
:10118000E66A540EE66E0F0E33EF09F0E66E7DC090
:10119000E9FF7EC0EAFF7D2B000E7E23E552E7507B
:1011A000EF6EDF06010E1200180EEE6E020EED6EEF
:1011B00012003FD8E6521200E55265D0EA6A180FD5
:1011C000E96E020EEA22EF50E66E1200000EDE6EAD
:1011D000020EDD6E02011451800B1200F72209008D
:1011E000F5CF71F00A00F5CF72F01200FE0EDBCFE2
:1011F000E6FFB0DEE552E55212001251F66EF76AD4
:10120000D890F636F736120039D8EE50ED101200AD
:1012100065C0E9FF66C0EAFF120044D8100EEE6E0A
:10122000020EED6E120068DF8FDF8C0EEF6E8DEF19
:1012300008F0D9CFE6FFE1CFD9FF12006EDF32D838
:10124000D4EF08F07ADF670EE926000E120075DF92
:101250006B0EE926000E12007DDFEF503C0BE842DA
:10126000E8420D081200E66E5BEC02F0006E050E1F
:10127000E15E0050120040DFD4EF08F0D9CFE9FF63
:10128000DACFEAFF1200E552E7CFD9FF1200020ED3
:10129000706F43DFEE52EF6A40DFC80EEF6EEBDF98
:0E12A00008EF09F0020EE926000EEA22120005
:020000040030CA
:0100000000FF
:0100010032CC
:01000200619C
:010003001EDE
:0100050000FA
:010006008178
:0100080003F4
:01000900C036
:01000A0003F2
:01000B00E014
:01000C0003F0
:01000D0040B2
:00000001FF
