:020000040000FA
:06000000B8EF11F0120040
:0600080004EF08F01200F5
:060018000CEF08F01200DD
:06100000B8EF11F0120030
:0610080028EF0FF01200BA
:0610180031EF0FF01200A1
:06102A0001009623000006
:08103000360F00000300000070
:08103800D9CFE6FFE1CFD9FF9B
:10104000E652636A626A0F019F0E5D6FFB0E5C6F72
:10105000658C659C5E6B0F0EE66EE66AE66A4D0E69
:10106000E66E0F0EE66E9EEC11F0006E050EE15E70
:101070000050DF6ADF50006E016A040E005C000E53
:10108000015810E2DF50040DF3CFE9FFF4CFEAFF7F
:10109000000EE926040EEA22EE6AEE6AEE6AEE6AB5
:1010A000DF2AE8D70F01160E4C6F62A60CD0030E94
:1010B000E66E620EE66E0F0EE66E0CEC0FF0E55279
:1010C000E552E552F2D7DF6A020EDF5C04E20F015F
:1010D000136BDF2AF9D765980F01040E0B6F040E0E
:1010E0000C6F016B006BE552E552E7CFD9FF1200A0
:1010F000D9CFE6FFE1CFD9FFE6520F01005114E14D
:1011000006D0656A0F015C6B0F01006B87D0656AC2
:101110000F015C6B65B602D06586FCD70F01010E2E
:10112000006F0F01140E5F6F0F0100050AE165BA31
:1011300008D0626A0F015C6B5C815C890F01020E52
:10114000006F6250040B05E00F015C51040B01E0DD
:101150009ED865B263D06250010B12E00F015C5162
:10116000010B0EE069DF0F01040E006F0401100E89
:10117000026F040E036F080E016F006B8C0E0013DC
:101180006250100B05E00F015C51100B01E06FD8AD
:101190006250400B11E00F015C51400B0DE052EC2E
:1011A00010F0060EE66E620EE66E0F0EE66E0CECAA
:1011B0000FF0E552E552E5526250200B05E00F01B9
:1011C0005C51200B01E02FD86250020B07E00F01A9
:1011D0005C51020B03E053EC10F0636A040E0F0144
:1011E000005D01E21BD00F015CA718D0DF6A040E7E
:1011F000DF5C14E262A60FD064CF19FF030EE66E27
:10120000620EE66E0F0EE66E0CEC0FF0E552E55244
:10121000E55251D801D002D0DF2AE9D7E552E55294
:10122000E7CFD9FF12000F014CA115D003CFE9FF82
:1012300004CFEAFFEF5080080DE10BCFE9FF0CCFA0
:10124000EAFFEF50840806E103CFE9FF04CFEAFF8D
:101250008C0EEF6E4C91060EE66E620EE66E0F0E71
:10126000E66E0CEC0FF0E552E552E55212000F016C
:101270005C85040EE66E620EE66E0F0EE66E0CECFA
:101280000FF0E552E552E552658250EF10F065929D
:1012900051EC10F00F015C9562A40CD0020EE66ECA
:1012A000620EE66E0F0EE66E0CEC0FF0E552E552A4
:1012B000E552F2D71200FD0E0F0119151FE17E0E47
:1012C0001915E8407F0B040DF3CF03FFF4CF04FFA3
:1012D000000E0327040E042303CF05FF04CF06FFEF
:1012E00003CFE9FF04CFEAFFEF503C0BE842E842AE
:1012F0000D0802E109D801D01ED805D0FD0E191540
:10130000040801E134D812000BCFE9FF0CCFEAFF4B
:10131000EF50800B05E00BCFE9FF0CCFEAFFEF6A3F
:101320000F010F6B106B146B156B136BFED854EC25
:1013300010F021EF0CF0020E0F01105D16E1B2DB90
:1013400003CFE9FF04CFEAFFEF50400B07E105CFE1
:10135000E9FF06CFEAFFC80EEF6E06D005CFE9FF22
:1013600006CFEAFF880EEF6E01D050D81200D9CF19
:10137000E6FFE1CFD9FFE6520BCFE9FF0CCFEAFF42
:10138000EF50400B01E0010EDF6E080E0F01005D13
:101390000DE112C45EFF0F015E51000804E20F016F
:1013A000100E006F03D00F01040E006F100528E12E
:1013B0000BCFE9FF0CCFEAFF020EE926000EEA226E
:1013C000180EEE6E040EED6EE2DA020E0F010F5DE6
:1013D00007E10BCFE9FF0CCFEAFF840EEF6E0FD0D1
:1013E000DF5007E10BCFE9FF0CCFEAFFC80EEF6E2D
:1013F00006D00BCFE9FF0CCFEAFF880EEF6E01D0CD
:1014000005D8E552E552E7CFD9FF1200D9CFE6FF64
:10141000E1CFD9FF030EE126020E0F01105D4AE174
:101420006550100B47E003CFE9FF04CFEAFFEE520F
:10143000EF50006E016A080E001801E101503AE118
:1014400003CFE9FF04CFEAFFEF503C0BE842E8424C
:101450000D0830E105CFE9FF06CFEAFFEF50800B22
:1014600029E105CFE9FF06CFEAFF020EE926000ECB
:10147000EA22100EEE6E040EED6EDF6ADF50006E93
:10148000016A080E005C000E015813E2DF50EA6AA0
:10149000180FE96E040EEA22EF50E66EDF50EA6A9A
:1014A000100FE96E040EEA22E552E750EF6EDF2AD4
:1014B000E5D731D0106B05CFE9FF06CFEAFFEE523A
:1014C000080EEF6E05CFE9FF06CFEAFF020EE92610
:1014D000000EEA22100EEE6E040EED6E05CFE9FF4F
:1014E00006CFEAFF8C0EEF6E0BCFE9FF0CCFEAFFC1
:1014F000EF6A000E0B19006E0CCF01F0010E00C058
:10150000DBFF020E01C0DBFF010EDBCFE9FF020EA5
:10151000DBCFEAFFEF6A030EE15C02E2E16AE5522B
:10152000E16EE552E7CFD9FF120004011051600BC4
:10153000E842E842E842E842E842000901E04CD0D3
:1015400011510C0A48E00B0A43E00C0A35E0010A8D
:1015500026E00B0A22E0020A20E0030A1CE0080A47
:1015600010E0010A0CE00F0A08E0030A01E033D0A2
:101570000F01138F080E006F2FD0B5D82DD0DBDAF6
:101580002BD00F01010E116F0F0E126F1381010E80
:10159000146F138F21D0FBD81FD01FD81DD014512A
:1015A0000F01116F126B020E11270F0E1223138100
:1015B000010E146F138F10D00F01138F04011451FB
:1015C000EA6A020FE96E0F0EEA2212C4EFFF04D09E
:1015D00056EC10F001D000D01200D9CFE6FFE1CFD9
:1015E000D9FF050EE1260401120510E110511F0B71
:1015F00000090CE10F01138F030E0401115D04E1DA
:101600000F01010E186F02D00F01186B0401125167
:1016100060E110511F0B02085CE114510F0B00092F
:1016200058E00F01138F040EDB6A020EF36E040EF6
:10163000DBCFF4FFF350F45C4CE2000EDE6E040EE0
:10164000DD6E04011451800B01E0010E026E145195
:101650000F0BE8240224040DF3CF00F0F4CF01F0C7
:10166000D9CFE9FFDACFEAFF0050EE260150ED2294
:10167000030E115D07E1DECFE9FFDDCFEAFF840E47
:10168000EF6E24D014510F0B016A4C0F006E0F0E39
:101690000122020E00C0DBFF030E01C0DBFF020EC1
:1016A000DBCFE9FF030EDBCFEAFFEE90ED5214AF84
:1016B00007D0DECFE9FFDDCFEAFF400EEF6E06D0A8
:1016C000DECFE9FFDDCFEAFFC80EEF6E040EDB2AA6
:1016D000ACD7050EE15C02E2E16AE552E16EE5524B
:1016E000E7CFD9FF1200800E0401105D4FE10F011A
:1016F000C00E136F04011351030A2EE0010A0EE01D
:10170000030A03E00F01136B41D00F01CA0E116FE2
:10171000210E126F120E146F156B38D01251F66E27
:10172000F76AD890F636F736960EF626220EF7228E
:101730000900F5CF11FF0A00F5CF12FF020E0F01CD
:10174000F76A1125F66E1251F7220900F5CF14FF42
:101750000A00F5CF15FF1AD01251F66EF76AD8902D
:10176000F636F736980EF626220EF7220900F5CF48
:1017700011FF0A00F5CF12FF11CFF6FF12CFF7FFCE
:101780000800F5500F01146F156B00D01200D9CF6F
:10179000E6FFE1CFD9FF020EE1260401186B196BB9
:1017A00010511F0B020A12E0030A0DE0010A01E0CA
:1017B00034D00F01138F040118810F01180502E1C5
:1017C000040118832AD00F01138F27D00F01138F24
:1017D000000EDE6E040EDD6E04011451800B01E07C
:1017E000010E026E14510F0BE8240224040DF3CFF6
:1017F00000F0F4CF01F0D9CFE9FFDACFEAFF0050D3
:10180000EE260150ED22DECFE9FFDDCFEAFFEF50FB
:10181000040B02E0010E186F00D00F0113AF07D0C8
:10182000180E116F040E126F1381020E146F020E48
:10183000E15C02E2E16AE552E16EE552E7CFD9FFF1
:10184000120065980F0113BF20D005CFE9FF06CF26
:10185000EAFFEE52080EEF6E05CFE9FF06CFEAFF72
:10186000020EE926000EEA22100EEE6E040EED6E58
:1018700005CFE9FF06CFEAFF8C0EEF6E0BCFE9FF35
:101880000CCFEAFF840EEF6E81D0040110AF56D06A
:101890000F0114510401165D0F0115510401175970
:1018A00004E216C414FF17C415FF71D80F01010E0E
:1018B000106F05CFE9FF06CFEAFFEE52080EEF6E7C
:1018C00005CFE9FF06CFEAFF020EE926000EEA2265
:1018D000100EEE6E040EED6E05CFE9FF06CFEAFFA7
:1018E000800EEF6E03CFE9FF04CFEAFFEE52080E41
:1018F000EF6E03CFE9FF04CFEAFF020EE926000EE8
:10190000EA22100EEE6E040EED6E03CFE9FF04CF57
:10191000EAFF800EEF6E0BCFE9FF0CCFEAFF020E5D
:10192000E926000EEA22180EEE6E040EED6E0BCFC5
:10193000E9FF0CCFEAFFC80EEF6E28D00F01020EB0
:10194000106F0BCFE9FF0CCFEAFFEE52EF6A0BCF1F
:10195000E9FF0CCFEAFFC80EEF6E05CFE9FF06CF17
:10196000EAFFEE52080EEF6E05CFE9FF06CFEAFF61
:10197000020EE926000EEA22180EEE6E040EED6E3F
:1019800005CFE9FF06CFEAFFC80EEF6E1200D9CFF0
:10199000E6FFE1CFD9FF020EE1260F01080E145D2C
:1019A000000E15590EE214CFDEFF15CFDDFF0F51EB
:1019B00003E1010E0F6F04D00F0502E1020E0F6F5D
:1019C00003D0080EDE6EDD6A0BCFE9FF0CCFEAFF15
:1019D000EF920BCFE9FF0CCFEAFFEF900BCFE9FFBF
:1019E0000CCFEAFF010EDB50EF120BCFE9FF0CCF5B
:1019F000EAFFEE52DFCFEFFF000EDB50145F010E67
:101A0000DB50155B180E166F040E176F13B121D043
:101A1000D9CFE9FFDACFEAFFEE50ED1019E011CF90
:101A2000F6FF12CFF7FF112B000E12230800F5501E
:101A3000E66E16CFE9FF17CFEAFF162B000E17232D
:101A4000E552E750EF6EDF06010E01E2DB06E0D75C
:101A50001FD0D9CFE9FFDACFEAFFEE50ED1018E042
:101A600011CFE9FF12CFEAFF112B000E1223EF5026
:101A7000E66E16CFE9FF17CFEAFF162B000E1723ED
:101A8000E552E750EF6EDF06010E01E2DB06E1D71B
:101A9000020EE15C02E2E16AE552E16EE552E7CF57
:101AA000D9FF1200D9CFE6FFE1CFD9FF020EE12620
:101AB00005CFE9FF06CFEAFFEF50030BE76E010EFB
:101AC000E7CFDBFF05CFE9FF06CFEAFFEE52EFCF0E
:101AD000DFFFDE500F011427DD501523180E116FA4
:101AE000040E126FD9CFE9FFDACFEAFFEE50ED1006
:101AF00018E011CFE9FF12CFEAFF112B000E1223DD
:101B0000EF50E66E16CFE9FF17CFEAFF162B000E57
:101B10001723E552E750EF6EDF06010E01E2DB0608
:101B2000E1D7020EE15C02E2E16AE552E16EE552C4
:101B3000E7CFD9FF12000F01138F0F0EE66EE66A92
:101B4000E66A4D0EE66E0F0EE66E9EEC11F0006E2C
:101B5000050EE15E0050010EE66EE66AE66A020ED0
:101B6000E66E0F0EE66E9EEC11F0006E050EE15E65
:101B7000005012C401FF0401125104E10F01100EC4
:101B8000006F05D00F01200E006F57EC10F012000F
:101B9000D9CFE6FFE1CFD9FF020EE126000EDE6EBF
:101BA000040EDD6EFD0EDB50040DF3CF02F0FE0ED1
:101BB000DB50080DF3500224006E016A020E0F0B79
:101BC00005E0D89001320032E806FBE1D8900036FB
:101BD0000136D89000360136D9CFE9FFDACFEAFFD7
:101BE0000050EE260150ED22DECFE9FFDDCFEAFF07
:101BF000EF9EFD0EDB500FE1FE0EEA6ADB34FE0BBA
:101C0000EA36E96E070EE9260F0EEA22DECFEEFF76
:101C1000DDCFEDFF0ED0FE0EEA6ADB34FE0BEA36B6
:101C2000E96E0B0EE9260F0EEA22DECFEEFFDDCFC6
:101C3000EDFFDECFE9FFDDCFEAFFEF8C020EE15CC6
:101C400002E2E16AE552E16EE552E7CFD9FF120008
:101C5000D9CFE6FFE1CFD9FF020EE126FE0EDB5021
:101C6000016A4C0F006E0F0E012200C0DEFF01C0A2
:101C7000DDFFFD0EDB50E66EDECFE9FFDDCFEAFFD4
:101C8000E552E750EE6EED6AFD0EDBA407D0E66A82
:101C9000FE0EDBCFE6FF7CDFE552E552FD0EDBA258
:101CA00008D0010EE66EFE0EDBCFE6FF71DFE552D7
:101CB000E552020EE15C02E2E16AE552E16EE552B4
:101CC000E7CFD9FF1200D9CFE6FFE1CFD9FF020E4F
:101CD000E126FD0EDBCFE6FFFE0EDB50E824E552E9
:101CE000E724040DF3CF00F0F4CF01F0000E00263E
:101CF000040E012200C0DEFF01C0DDFF840E006E75
:101D0000DECFE9FFDDCFEAFF0050EF12020EE15C0B
:101D100002E2E16AE552E16EE552E7CFD9FF120037
:101D2000D9CFE6FFE1CFD9FF020EE126FD0EDB5051
:101D30000FE0FE0EEA6ADB34FE0BEA36E96E0B0EAC
:101D4000E9260F0EEA22EECFDEFFEDCFDDFF0ED04B
:101D5000FE0EEA6ADB34FE0BEA36E96E070EE92670
:101D60000F0EEA22EECFDEFFEDCFDDFFDECFE9FF83
:101D7000DDCFEAFFEF7CDECFE9FFDDCFEAFF020E29
:101D8000E926000EEA22FB0EDBCFEEFFFC0EDBCFD6
:101D9000EDFFDECFE9FFDDCFEAFFEE52FA0EDBCF3B
:101DA000EFFF400E006EDECFE9FFDDCFEAFF00500F
:101DB000EF16880E006EDECFE9FFDDCFEAFF0050A0
:101DC000EF12FD0EDB500BE0FE0EEA6ADB34FE0B79
:101DD000EA36E96E0B0EE9260F0EEA220AD0FE0E55
:101DE000EA6ADB34FE0BEA36E96E070EE9260F0ECF
:101DF000EA22DECF00F0DDCF01F000C0F3FF01C02A
:101E0000F4FF020EE15C03E200D0E16AE552E16E0C
:101E1000E552E7CFD9FF1200D9CFE6FFE1CFD9FFD6
:101E2000010EF36EFC0EDB5004E0D890F336E806AA
:101E3000FCE1F350E81C006EFD0EDBCFE9FFFE0E67
:101E4000DBCFEAFF0050EF16E552E7CFD9FF1200D3
:101E5000DACFE4FFE2CFDAFFE652E552E5CFDAFF70
:101E60001100120005D878EC08F046D8FCD7120013
:101E7000D9CFE6FFE1CFD9FF020EE126580EDE6E84
:101E8000020EDD6E9B8CDFCF00F0DF06010EDBCF94
:101E900001F001E2DB060050011001E0F4D7C08838
:101EA000C168C268C0981CEC08F00AD8020EE15C58
:101EB00002E2E16AE552E16EE552E7CFD9FF120096
:101EC000FC0E8D169616F30E8C169516938881507F
:101ED000100B01E0010E0F011E6F8150100B01E08D
:101EE000010E1F6F246B24CF23FF24CF22FF010E8E
:101EF000206F256B266B12008BD8200E0F01005D22
:101F000003E36550020B01E00BD06FD8000907E036
:101F10000F01205102E0000E01D0010E206F01D808
:101F200012000F0120051EE121510E081AE2226B5A
:101F3000070E0F013615F76A8C0FF66E230EF72287
:101F40000800F5CF23FF020E3625070BF76A8C0F2A
:101F5000F66E230EF7220800F5CF24FF362B0F0173
:101F6000216B05D0246B24CF23FF24CF22FF2551E2
:101F7000261102E1000E08D025CFE9FF26CFEAFFA7
:101F8000EF50800B01E0010E00091BE122CF23F48A
:101F900023CF24F424CF25F4030EE66E230EE66E41
:101FA000040EE66E010EE66EE66E90EC0EF0006E2C
:101FB000050EE15E0050F3CF25FFF4CF26FF0F01A1
:101FC000212B12008150100B01E0010E0F011E5D4C
:101FD00009E08150100B01E0010E1E6F81B802D0A4
:101FE000010E02D0000E00D012008150100B01E053
:101FF000010E0F011F5D09E08150100B01E0010E81
:102000001F6F81B802D0010E02D0000E00D0120066
:102010000F013751381104E1100E376F270E386F5A
:102020003707000E385B65A20BD03751381107E136
:102030008D708D50010B02E08D8201D08D922FD0DA
:102040000F01005103E18D908D9229D0000503E12D
:102050008D808D8224D0020E005D03E18D808D92F3
:102060001ED0040E005D03E18D908D8218D0100EFD
:10207000005D07E10F013751381102E18D708D923B
:102080000ED0200E005D0BE10F013751381107E132
:102090008D708D50010B02E08D9201D08D82120067
:1020A00012001200120012006EEF10F012001A0E51
:1020B000E66E010EE66E28EC0EF0E552E5521200D7
:1020C00065840F01080E276F070E286F2707000E83
:0C20D000285B27512811FAE165941200EA
:0420DC00040110519A
:1020E0001F0B010801E06DD0145101E06AD0060E0B
:1020F000115D28E11351230A21E0010A11E0030ACE
:1021000001E020D00F0101050AE10F01EE0E116F71
:10211000210E126F090E146F156BC00E136F12D0C3
:102120000F0101050AE10F01640E116F220E126FFB
:10213000320E146F156BC00E136F04D00F01800E9A
:10214000136F00D004011051600BE842E842E842EE
:10215000E842E842010801E034D011510B0A2BE0BB
:10216000080A1EE0090A16E0080A09E00B0A05E061
:10217000080A01E026D026D824D025D822D00F0185
:10218000330E116F0F0E126F010E146F156BC10E0F
:10219000136F17D00F01800E136F13C433FF11D0CC
:1021A0000F01340E116F0F0E126F010E146F156BAD
:1021B000810E136F06D00F01800E136F12C434FF0F
:0A21C00000D01200120012001200FD
:0621CA00120110010000EB
:1021D0000008D804000003000102000109022200E7
:1021E000010100C0320904000001030102000921BD
:1021F000110100012232000705810303000A0403D4
:10220000090434034D006900630072006F0063002D
:1022100068006900700020005400650063006800D9
:102220006E006F006C006F006700790020004900AD
:102230006E0063002E002E034D006F0075007300CA
:102240006500200049006E0020006100200043006E
:102250006900720063006C006500200044006500A6
:102260006D006F0005010902A1010901A100050926
:1022700019012903150025019503750181029501B6
:10228000750581010501093009311581257F750822
:0E22900095028106C0C0DC21FE21022236220A
:02229E002A0E06
:1022A000F66E100EF76E000EF86E0F010900F55075
:1022B0002E6F0900F5502F6F03E12E6701D03DD03E
:1022C0000900F550296F0900F5502A6F0900F550F3
:1022D0002B6F09000900F550E96E0900F550EA6E10
:1022E000090009000900F5502C6F0900F5502D6F09
:1022F00009000900F6CF30FFF7CF31FFF8CF32FFEA
:1023000029CFF6FF2ACFF7FF2BCFF8FF0F012C5371
:1023100002E12D5307E00900F550EE6E2C07F8E2BC
:102320002D07F9D730CFF6FF31CFF7FF32CFF8FFC7
:0C2330000F012E07000E2F5BBFD712001C
:04233C00FE0EE3CFDF
:10234000E9FFFF0EE3CFEAFFE9CFF3FFEACFF4FFA7
:10235000FB0EE35003E1FC0EE35009E0FB0EE30645
:1023600002E2FC0EE306FD0EE350EE6EF1D7120022
:102370001EEE00F02EEE00F0F86A049C4FEC11F017
:0C238000CAEC11F032EC0FF0FBD7120099
:04238C00FCFCFC0059
:04239000040404003D
:02239400120035
:0323960000000044
:020000040001F9
:01FFF800AA5E
:01FFF900F710
:01FFFA000501
:01FFFB00FF06
:01FFFD00F70C
:00000001FF
