:020000040000FA
:060000000EEF12F01200E9
:0600080004EF08F01200F5
:060018000CEF08F01200DD
:061000000EEF12F01200D9
:0610080090EF0FF0120052
:0610180099EF0FF0120039
:06102A000100502400004B
:081030009D0000000300000018
:08103800D9CFE6FFE1CFD9FF9B
:10104000E6526A6A686A9F0E6B6EFB0E696E6D8C63
:101050006D9C6E6A000EE66EE66AE66A710EE66EDA
:101060000F0EE66EF4EC11F0006E050EE15E00501E
:10107000DF6ADF50006E016A040E005C000E01584A
:1010800010E2DF50040DF3CFE9FFF4CFEAFF000ECA
:10109000E926040EEA22EE6AEE6AEE6AEE6ADF2ABA
:1010A000E8D7160E706E68A60CD0030EE66E680EBA
:1010B000E66E0F0EE66E74EC0FF0E552E552E55267
:1010C000F2D70001736B786B6D98040E6B6F040E92
:1010D0006C6F616B606BE552E552E7CFD9FF120090
:1010E000D9CFE6FFE1CFD9FFE6520001605111E10F
:1010F00005D06D6A696A0001606B7BD06D6A696AB0
:101100006DB602D06D86FCD70001010E606F140E23
:101110006F6E600508E16DBA06D0686A696A698019
:101120006988020E606F6850040B04E06950040B7C
:1011300001E096D86DB25DD06850010B11E06950A6
:10114000010B0EE079DF0001040E606F0401100E48
:10115000026F040E036F080E016F006B8C0E0013FC
:101160006850100B04E06950100B01E06AD8685019
:10117000400B10E06950400B0DE0A8EC10F0060E9B
:10118000E66E680EE66E0F0EE66E74EC0FF0E5523A
:10119000E552E5526850200B04E06950200B01E055
:1011A0002DD86850020B06E06950020B03E0A9EC51
:1011B00010F06A6A040E0001605D01E21AD069A6AF
:1011C00018D0DF6A040EDF5C14E268A60FD06CCF83
:1011D00080F0030EE66E680EE66E0F0EE66E74EC9F
:1011E0000FF0E552E552E5524ED801D002D0DF2A89
:1011F000E9D7E552E552E7CFD9FF120070A015D02C
:1012000063C0E9FF64C0EAFFEF5080080DE16BC0E6
:10121000E9FF6CC0EAFFEF50840806E163C0E9FF14
:1012200064C0EAFF8C0EEF6E7090060EE66E680EDC
:10123000E66E0F0EE66E74EC0FF0E552E552E552E5
:1012400012006984040EE66E680EE66E0F0EE66EFE
:1012500074EC0FF0E552E552E5526D82A6EF10F006
:101260006D92A7EC10F0699468A40CD0020EE66EA3
:10127000680EE66E0F0EE66E74EC0FF0E552E55266
:10128000E552F2D71200FD0E000180151FE17E0E1F
:101290008015E8407F0B040DF3CF63F0F4CF64F0CA
:1012A000000E6327040E642363C065F064C066F01B
:1012B00063C0E9FF64C0EAFFEF503C0BE842E8423C
:1012C0000D0802E109D801D01ED805D0FD0E801509
:1012D000040801E120D812006BC0E9FF6CC0EAFFEE
:1012E000EF50800B05E06BC0E9FF6CC0EAFFEF6ACE
:1012F00000016F6B706B746B756B736BE7D8AAEC46
:1013000010F0F2EF0BF0020E0001705D02E1C7DB9E
:1013100001D04DD81200D9CFE6FFE1CFD9FFE65278
:101320006BC0E9FF6CC0EAFFEF50400B01E0010E1B
:10133000DF6E080E0001605D0AE112C46EFF6E50A0
:10134000000803E2100E606F02D0040E606F70059B
:1013500028E16BC0E9FF6CC0EAFF020EE926000E2F
:10136000EA22180EEE6E040EED6E0EDB020E000188
:101370006F5D07E16BC0E9FF6CC0EAFF840EEF6EA2
:101380000FD0DF5007E16BC0E9FF6CC0EAFFC80E69
:10139000EF6E06D06BC0E9FF6CC0EAFF880EEF6EFF
:1013A00001D005D8E552E552E7CFD9FF1200D9CFD9
:1013B000E6FFE1CFD9FF030EE126020E0001705DCA
:1013C0004AE16D50100B47E063C0E9FF64C0EAFFDB
:1013D000EE52EF50006E016A080E001801E1015054
:1013E0003AE163C0E9FF64C0EAFFEF503C0BE8421A
:1013F000E8420D0830E165C0E9FF66C0EAFFEF5042
:10140000800B29E165C0E9FF66C0EAFF020EE9260C
:10141000000EEA22100EEE6E040EED6EDF6ADF5053
:10142000006E016A080E005C000E015813E2DF50E6
:10143000EA6A180FE96E040EEA22EF50E66EDF50FA
:10144000EA6A100FE96E040EEA22E552E750EF6EE9
:10145000DF2AE5D731D0706B65C0E9FF66C0EAFFCF
:10146000EE52080EEF6E65C0E9FF66C0EAFF020E9D
:10147000E926000EEA22100EEE6E040EED6E65C037
:10148000E9FF66C0EAFF8C0EEF6E6BC0E9FF6CC02F
:10149000EAFFEF6A000E6B19006E6CC001F0010EDE
:1014A00000C0DBFF020E01C0DBFF010EDBCFE9FF56
:1014B000020EDBCFEAFFEF6A030EE15C02E2E16AB3
:1014C000E552E16EE552E7CFD9FF12000401105159
:1014D000600BE842E842E842E842E842000901E0E5
:1014E0004CD011510C0A48E00B0A43E00C0A35E0DD
:1014F000010A26E00B0A22E0020A20E0030A1CE0AF
:10150000080A10E0010A0CE00F0A08E0030A01E0F3
:1015100033D00001738F080E606F2FD0B5D82DD057
:101520004FDB2BD00001610E716F000E726F738163
:10153000010E746F738F21D0FBD81FD01FD81DD020
:1015400014510001716F726B620E7127000E7223CD
:101550007381010E746F738F10D00001738F0401BB
:101560001451EA6A620FE96E000EEA2212C4EFFF1C
:1015700004D0ACEC10F001D000D01200D9CFE6FFBF
:10158000E1CFD9FF050EE1260401120510E110514B
:101590001F0B00090CE10001738F030E0401115DA4
:1015A00004E10001010E7F6F02D000017F6B040196
:1015B000125160E110511F0B02085CE114510F0B36
:1015C000000958E00001738F040EDB6A020EF36E0F
:1015D000040EDBCFF4FFF350F45C4CE2000EDE6E41
:1015E000040EDD6E04011451800B01E0010E026E49
:1015F00014510F0BE8240224040DF3CF00F0F4CFB4
:1016000001F0D9CFE9FFDACFEAFF0050EE26015012
:10161000ED22030E115D07E1DECFE9FFDDCFEAFF2A
:10162000840EEF6E24D014510F0B016A700F006E00
:101630000F0E0122020E00C0DBFF030E01C0DBFF14
:10164000020EDBCFE9FF030EDBCFEAFFEE90ED5297
:1016500014AF07D0DECFE9FFDDCFEAFF400EEF6E1B
:1016600006D0DECFE9FFDDCFEAFFC80EEF6E040E35
:10167000DB2AACD7050EE15C02E2E16AE552E16EDD
:10168000E552E7CFD9FF1200800E0401105D4FE153
:101690000001C00E736F04011351030A2EE0010A0A
:1016A0000EE0030A03E00001736B41D00001760EE7
:1016B000716F220E726F120E746F756B38D01251EB
:1016C000F66EF76AD890F636F736420EF626230EF7
:1016D000F7220900F5CF71F00A00F5CF72F0020E83
:1016E0000001F76A7125F66E7251F7220900F5CFF5
:1016F00074F00A00F5CF75F01AD01251F66EF76A41
:10170000D890F636F736440EF626230EF722090057
:10171000F5CF71F00A00F5CF72F071C0F6FF72C01C
:10172000F7FF0800F5500001746F756B00D01200D0
:10173000D9CFE6FFE1CFD9FF020EE1260401186BF5
:10174000196B10511F0B020A12E0030A0DE0010A87
:1017500001E034D00001738F0401188100017F057E
:1017600002E1040118832AD00001738F27D0000101
:10177000738F000EDE6E040EDD6E04011451800BBB
:1017800001E0010E026E14510F0BE8240224040D37
:10179000F3CF00F0F4CF01F0D9CFE9FFDACFEAFFC1
:1017A0000050EE260150ED22DECFE9FFDDCFEAFF4B
:1017B000EF50040B02E0010E186F00D0000173AF70
:1017C00007D0180E716F040E726F7381020E746F62
:1017D000020EE15C02E2E16AE552E16EE552E7CF1A
:1017E000D9FF12006D98000173BF4AD078AF28D09E
:1017F000020E706F6BC0E9FF6CC0EAFFEE52EF6A39
:101800006BC0E9FF6CC0EAFFC80EEF6E65C0E9FF70
:1018100066C0EAFFEE52080EEF6E65C0E9FF66C0D3
:10182000EAFF020EE926000EEA22180EEE6E040E02
:10183000ED6E65C0E9FF66C0EAFFC80EEF6E1FD00F
:1018400065C0E9FF66C0EAFFEE52080EEF6E65C0A4
:10185000E9FF66C0EAFF020EE926000EEA22100E3A
:10186000EE6E040EED6E65C0E9FF66C0EAFF8C0EF9
:10187000EF6E6BC0E9FF6CC0EAFF840EEF6E83D0A1
:1018800078BF81D0040110AF56D00001745104011B
:10189000165D000175510401175904E216C474F075
:1018A00017C475F071D80001010E706F65C0E9FFB3
:1018B00066C0EAFFEE52080EEF6E65C0E9FF66C033
:1018C000EAFF020EE926000EEA22100EEE6E040E6A
:1018D000ED6E65C0E9FF66C0EAFF800EEF6E63C083
:1018E000E9FF64C0EAFFEE52080EEF6E63C0E9FF45
:1018F00064C0EAFF020EE926000EEA22100EEE6E28
:10190000040EED6E63C0E9FF64C0EAFF800EEF6E67
:101910006BC0E9FF6CC0EAFF020EE926000EEA2266
:10192000180EEE6E040EED6E6BC0E9FF6CC0EAFFA0
:10193000C80EEF6E28D00001020E706F6BC0E9FF79
:101940006CC0EAFFEE52EF6A6BC0E9FF6CC0EAFFC1
:10195000C80EEF6E65C0E9FF66C0EAFFEE52080EE2
:10196000EF6E65C0E9FF66C0EAFF020EE926000ED1
:10197000EA22180EEE6E040EED6E65C0E9FF66C039
:10198000EAFFC80EEF6E1200D9CFE6FFE1CFD9FF14
:10199000020EE1260001080E745D000E75590EE27C
:1019A00074C0DEFF75C0DDFF6F5103E1010E6F6F84
:1019B00004D06F0502E1020E6F6F03D0080EDE6ED9
:1019C000DD6A6BC0E9FF6CC0EAFFEF926BC0E9FF14
:1019D0006CC0EAFFEF906BC0E9FF6CC0EAFF010E3C
:1019E000DB50EF126BC0E9FF6CC0EAFFEE52DFCFB5
:1019F000EFFF000EDB50745F010EDB50755B180EBD
:101A00007D6F040E7E6F73B121D0D9CFE9FFDACF9D
:101A1000EAFFEE50ED1019E071C0F6FF72C0F7FF5B
:101A2000712B000E72230800F550E66E7DC0E9FFB1
:101A30007EC0EAFF7D2B000E7E23E552E750EF6E5D
:101A4000DF06010E01E2DB06E0D71FD0D9CFE9FFA8
:101A5000DACFEAFFEE50ED1018E071C0E9FF72C076
:101A6000EAFF712B000E7223EF50E66E7DC0E9FF96
:101A70007EC0EAFF7D2B000E7E23E552E750EF6E1D
:101A8000DF06010E01E2DB06E1D7020EE15C02E2B5
:101A9000E16AE552E16EE552E7CFD9FF1200D9CFF6
:101AA000E6FFE1CFD9FF020EE12663C0E9FF64C083
:101AB000EAFFEE52EFCFDFFFDFCF00F00050000172
:101AC000795D000E7A5903E279C0DFFF09D0DF505B
:101AD000006E016A0050795D796F01507A597A6F12
:101AE000010EDB6ADF50F36E010EDBCFF4FFF35023
:101AF000F45C16E2010EDB50EA6A180FE96E040E80
:101B0000EA22EF50E66E76C0E9FF77C0EAFF762B57
:101B1000000E7723E552E750EF6E010EDB2AE2D785
:101B2000000ED8807955000E7A5528E265C0E9FF8D
:101B300066C0EAFFEE52080EEF6E65C0E9FF66C0B0
:101B4000EAFF020EE926000EEA22180EEE6E040EDF
:101B5000ED6E63C0E9FF64C0EAFFEF50400B07E1A0
:101B600065C0E9FF66C0EAFFC80EEF6E06D065C02B
:101B7000E9FF66C0EAFF880EEF6E18D065C0E9FF86
:101B800066C0EAFF020EE926000EEA22100EEE6E93
:101B9000040EED6E7B517C1107E005D07CC0FAFF8E
:101BA00000017B51F96EFADF0001789F020EE15CC3
:101BB00002E2E16AE552E16EE552E7CFD9FF120099
:101BC0000001738F000EE66EE66AE66A710EE66E3D
:101BD0000F0EE66EF4EC11F0006E050EE15E0050A3
:101BE000010EE66EE66AE66A620EE66E000EE66ECC
:101BF000F4EC11F0006E050EE15E005012C461F0CD
:101C00000401125104E10001100E606F05D00001C3
:101C1000200E606FADEC10F01200D9CFE6FFE1CFDF
:101C2000D9FF020EE126000EDE6E040EDD6EFD0E03
:101C3000DB50040DF3CF02F0FE0EDB50080DF35025
:101C40000224006E016A020E0F0B05E0D8900132EB
:101C50000032E806FBE1D89000360136D890003615
:101C60000136D9CFE9FFDACFEAFF0050EE26015066
:101C7000ED22DECFE9FFDDCFEAFFEF9EFD0EDB5068
:101C80000FE1FE0EEA6ADB34FE0BEA36E96E670E00
:101C9000E926000EEA22DECFEEFFDDCFEDFF0ED00B
:101CA000FE0EEA6ADB34FE0BEA36E96E6B0EE926BD
:101CB000000EEA22DECFEEFFDDCFEDFFDECFE9FF43
:101CC000DDCFEAFFEF8C020EE15C02E2E16AE55251
:101CD000E16EE552E7CFD9FF1200D9CFE6FFE1CFA1
:101CE000D9FF020EE126FE0EDB50016A700F006E76
:101CF0000F0E012200C0DEFF01C0DDFFFD0EDB5034
:101D0000E66EDECFE9FFDDCFEAFFE552E750EE6E8B
:101D1000ED6AFD0EDBA407D0E66AFE0EDBCFE6FF20
:101D20007CDFE552E552FD0EDBA208D0010EE66E27
:101D3000FE0EDBCFE6FF71DFE552E552020EE15CFD
:101D400002E2E16AE552E16EE552E7CFD9FF120007
:101D5000D9CFE6FFE1CFD9FF020EE126FE0EDB5020
:101D600020E165C0E9FF66C0EAFFEE52080EEF6EA3
:101D700065C0E9FF66C0EAFF020EE926000EEA220E
:101D8000100EEE6E040EED6E65C0E9FF66C0EAFF50
:101D90008C0EEF6E6BC0E9FF6CC0EAFF840EEF6E35
:101DA0001DD0FD0EDBCFE6FFFE0EDB50E824E55232
:101DB000E724040DF3CF00F0F4CF01F0000E00266D
:101DC000040E012200C0DEFF01C0DDFF840E006EA4
:101DD000DECFE9FFDDCFEAFF0050EF12020EE15C3B
:101DE00002E2E16AE552E16EE552E7CFD9FF120067
:101DF000D9CFE6FFE1CFD9FF020EE126FD0EDB5081
:101E00000FE0FE0EEA6ADB34FE0BEA36E96E6B0E7B
:101E1000E926000EEA22EECFDEFFEDCFDDFF0ED089
:101E2000FE0EEA6ADB34FE0BEA36E96E670EE9263F
:101E3000000EEA22EECFDEFFEDCFDDFFDECFE9FFC1
:101E4000DDCFEAFFEF7CDECFE9FFDDCFEAFF020E58
:101E5000E926000EEA22FB0EDBCFEEFFFC0EDBCF05
:101E6000EDFFDECFE9FFDDCFEAFFEE52FA0EDBCF6A
:101E7000EFFF400E006EDECFE9FFDDCFEAFF00503E
:101E8000EF16880E006EDECFE9FFDDCFEAFF0050CF
:101E9000EF12FD0EDB500BE0FE0EEA6ADB34FE0BA8
:101EA000EA36E96E6B0EE926000EEA220AD0FE0E33
:101EB000EA6ADB34FE0BEA36E96E670EE926000EAD
:101EC000EA22DECF00F0DDCF01F000C0F3FF01C059
:101ED000F4FF020EE15C03E200D0E16AE552E16E3C
:101EE000E552E7CFD9FF1200D9CFE6FFE1CFD9FF06
:101EF000010EF36EFC0EDB5004E0D890F336E806DA
:101F0000FCE1F350E81C006EFD0EDBCFE9FFFE0E96
:101F1000DBCFEAFF0050EF16E552E7CFD9FF120002
:101F2000DACFE4FFE2CFDAFFE652E552E5CFDAFF9F
:101F30001100D8CFE4FFE0CFE4FFE46EDACFE4FF96
:101F4000E2CFDAFFE652E552E5CFDAFFE550E5CF22
:101F5000E0FFE5CFD8FF100005D870EC08F022D8DC
:101F6000FCD712000F0EC1121CEC08F0B8EF0FF0F6
:101F7000F00E8C1695169388938A8150100B01E011
:101F8000010E0001856F8150200B01E0010E866F6C
:101F90008B6B8BC08AF08BC089F0010E876F8C6BC6
:101FA0008D6B12008BD8200E0001605D03E36D5035
:101FB000020B01E00BD06FD8000907E00001875148
:101FC00002E0000E01D0010E876F01D8120000015F
:101FD00087051EE188510E081AE2896B070E000181
:101FE0009D15F76A460FF66E240EF7220800F5CF0E
:101FF0008AF0020E9D25070BF76A460FF66E240E37
:10200000F7220800F5CF8BF09D2B0001886B05D0DF
:102010008B6B8BC08AF08BC089F08C518D1102E1E3
:10202000000E08D08CC0E9FF8DC0EAFFEF50800B96
:1020300001E0010E00091BE189C023F48AC024F4E9
:102040008BC025F4030EE66E230EE66E040EE66EDC
:10205000010EE66EE66EF8EC0EF0006E050EE15E27
:102060000050F3CF8CF0F4CF8DF00001882B1200DC
:102070008150100B01E0010E0001855D09E08150E7
:10208000100B01E0010E856F81B802D0010E02D065
:10209000000E00D012008150200B01E0010E000163
:1020A000865D09E08150200B01E0010E866F81BA48
:1020B00002D0010E02D0000E00D0120000019E518D
:1020C0009F1104E1100E9E6F270E9F6F9E07000E5A
:1020D0009F5B6DA20BD09E519F1107E18C708C50BD
:1020E000010B02E08C8201D08C922FD00001605154
:1020F00003E18C908C9229D0600503E18C808C8266
:1021000024D0020E605D03E18C808C921ED0040E00
:10211000605D03E18C908C8218D0100E605D07E149
:1021200000019E519F1102E18C708C920ED0200E06
:10213000605D0BE100019E519F1107E18C708C5096
:10214000010B02E08C9201D08C821200120012006E
:1021500012001200C4EF10F012001A0EE66E010E0B
:10216000E66E6DEC0EF0E552E55212006D84000152
:10217000080E8E6F070E8F6F8E07000E8F5B8E51CD
:082180008F11FAE16D941200C9
:08218800040110511F0B0108B6
:1021900001E06DD0145101E06AD0060E115D28E116
:1021A0001351230A21E0010A11E0030A01E020D0C3
:1021B000000161050AE100019A0E716F220E726F33
:1021C000090E746F756BC00E736F12D0000161053C
:1021D0000AE10001100E716F230E726F320E746FE0
:1021E000756BC00E736F04D00001800E736F00D04A
:1021F00004011051600BE842E842E842E842E8423C
:10220000010801E034D011510B0A2BE0080A1EE04E
:10221000090A16E0080A09E00B0A05E0080A01E0CD
:1022200026D026D824D025D822D000019A0E716F4E
:10223000000E726F010E746F756BC10E736F17D045
:102240000001800E736F13C49AF011D000019B0E31
:10225000716F000E726F010E746F756B810E736F6C
:1022600006D00001800E736F12C49BF000D01200E4
:0622700012001200120032
:0A2276001201100100000008D80456
:10228000000003000102000109022200010100C058
:1022900032090400000103010200092111010001BB
:1022A00022320007058103030001040309043403FB
:1022B0004D006900630072006F00630068006900F0
:1022C0007000200054006500630068006E006F001D
:1022D0006C006F0067007900200049006E00630009
:1022E0002E002E034D006F00750073006500200066
:1022F00049006E0020006100200043006900720068
:1023000063006C0065002000440065006D006F00F4
:1023100005010902A1010901A1000509190129030B
:10232000150025019503750181029501750581014F
:102330000501093009311581257F7508950281064F
:0A234000C0C08822AA22AE22E222C9
:06234A002A0EF66E100ED3
:10235000F76E000EF86E00010900F550956F090048
:10236000F550966F03E1956701D03DD00900F55017
:10237000906F0900F550916F0900F550926F0900B8
:102380000900F550E96E0900F550EA6E09000900F0
:102390000900F550936F0900F550946F090009008A
:1023A000F6CF97F0F7CF98F0F8CF99F090C0F6FFFE
:1023B00091C0F7FF92C0F8FF0001935302E19453DC
:1023C00007E00900F550EE6E9307F8E29407F9D79D
:1023D00097C0F6FF98C0F7FF99C0F8FF0001950776
:0823E000000E965BBFD712004E
:0823E800FE0EE3CFE9FFFF0E3A
:1023F000E3CFEAFFE9CFF3FFEACFF4FFFB0EE350B0
:1024000003E1FC0EE35009E0FB0EE30602E2FC0EE2
:0C241000E306FD0EE350EE6EF1D7120063
:04241C0013EE00F0CB
:1024200023EE00F0F86A049CA5EC11F027EC12F002
:08243000ACEC0FF0FBD7120029
:0824380000EE00F00F0EEE6A49
:06244000EA62FDD7120064
:08244600FCFCFC00040404008E
:02244E0012007A
:0324500000000089
:020000040030CA
:0100000024DB
:010001000EF0
:010002003FBE
:010003001EDE
:010005008179
:010006008178
:010008000FE8
:01000900C036
:01000A000FE6
:01000B00A054
:01000C000FE4
:01000D0040B2
:00000001FF
