:020000040000FA
:060000008DEF14F0120068
:0600080004EF08F01200F5
:060018000CEF08F01200DD
:061000008DEF14F0120058
:0610080038EF12F01200A7
:0610180041EF12F012008E
:06102A000100F92700009F
:08103000A10000000100000016
:08103800D9CFE6FFE1CFD9FF9B
:10104000E6526A6A686A9F0E6B6EFB0E696E6D8C63
:101050006D9C6E6A000EE66EE66AE66A710EE66EDA
:101060000F0EE66E4CEC14F0006E050EE15E0050C3
:10107000DF6ADF50006E016A040E005C000E01584A
:1010800010E2DF50040DF3CFE9FFF4CFEAFF000ECA
:10109000E926040EEA22EE6AEE6AEE6AEE6ADF2ABA
:1010A000E8D7160E706E68A60CD0030EE66E680EBA
:1010B000E66E0F0EE66E85EC0FF0E552E552E55256
:1010C000F2D70001736B786B796B7A6B6D98040EB5
:1010D0006B6F040E6C6F616B606BE552E552E7CF8E
:1010E000D9FF1200D9CFE6FFE1CFD9FFE6520001C8
:1010F000605111E105D06D6A696A0001606B7BD0B7
:101100006D6A696A6DB602D06D86FCD70001010E6A
:10111000606F140E6F6E600508E16DBA06D0686AE4
:10112000696A69806988020E606F6850040B04E088
:101130006950040B01E096D86DB25DD06850010B88
:1011400011E06950010B0EE077DF0001040E606FC3
:101150000401100E026F040E036F080E016F006B86
:101160008C0E00136850100B04E06950100B01E066
:101170006AD86850400B10E06950400B0DE0FDEC60
:1011800012F0060EE66E680EE66E0F0EE66E85EC49
:101190000FF0E552E552E5526850200B04E069502B
:1011A000200B01E02DD86850020B06E06950020BBD
:1011B00003E0FEEC12F06A6A040E0001605D01E2D9
:1011C0001AD069A618D0DF6A040EDF5C14E268A6A4
:1011D0000FD06CCF80F0030EE66E680EE66E0F0E39
:1011E000E66E85EC0FF0E552E552E5524ED801D09F
:1011F00002D0DF2AE9D7E552E552E7CFD9FF120046
:1012000070A015D063C0E9FF64C0EAFFEF5080080A
:101210000DE16BC0E9FF6CC0EAFFEF50840806E106
:1012200063C0E9FF64C0EAFF8C0EEF6E7090050E9C
:10123000E66E680EE66E0F0EE66E85EC0FF0E55278
:10124000E552E55212006984040EE66E680EE66E01
:101250000F0EE66E85EC0FF0E552E552E5526D8219
:10126000FBEF12F06D92FCEC12F0699468A40CD0C4
:10127000020EE66E680EE66E0F0EE66E85EC0FF05F
:10128000E552E552E552F2D71200FD0E000180153D
:101290001FE17E0E8015E8407F0B040DF3CF63F055
:1012A000F4CF64F0000E6327040E642363C065F07E
:1012B00064C066F063C0E9FF64C0EAFFEF503C0B16
:1012C000E842E8420D0802E109D801D01ED805D055
:1012D000FD0E8015040801E120D812006BC0E9FF63
:1012E0006CC0EAFFEF50800B05E06BC0E9FF6CC0FB
:1012F000EAFFEF6A00016F6B706B746B756B736B59
:10130000F6D8FFEC12F003EF0CF0020E0001705D56
:1013100002E1D6DB01D04DD81200D9CFE6FFE1CFF4
:10132000D9FFE6526BC0E9FF6CC0EAFFEF50400BFB
:1013300001E0010EDF6E080E0001605D0AE112C4DB
:101340006EFF6E50000803E2100E606F02D0040EB4
:10135000606F700528E16BC0E9FF6CC0EAFF020E08
:10136000E926000EEA22180EEE6E040EED6E1DDB6D
:10137000020E00016F5D07E16BC0E9FF6CC0EAFF80
:10138000840EEF6E0FD0DF5007E16BC0E9FF6CC039
:10139000EAFFC80EEF6E06D06BC0E9FF6CC0EAFF33
:1013A000880EEF6E01D005D8E552E552E7CFD9FFA0
:1013B0001200D9CFE6FFE1CFD9FF030EE126020EDE
:1013C0000001705D4AE16D50100B47E063C0E9FF1A
:1013D00064C0EAFFEE52EF50006E016A080E00187A
:1013E00001E101503AE163C0E9FF64C0EAFFEF5058
:1013F0003C0BE842E8420D0830E165C0E9FF66C0F9
:10140000EAFFEF50800B29E165C0E9FF66C0EAFF03
:10141000020EE926000EEA22100EEE6E040EED6EAC
:10142000DF6ADF50006E016A080E005C000E015892
:1014300013E2DF50EA6A180FE96E040EEA22EF5059
:10144000E66EDF50EA6A100FE96E040EEA22E552FA
:10145000E750EF6EDF2AE5D731D0706B65C0E9FF4A
:1014600066C0EAFFEE52080EEF6E65C0E9FF66C087
:10147000EAFF020EE926000EEA22100EEE6E040EBE
:10148000ED6E65C0E9FF66C0EAFF8C0EEF6E6BC0C3
:10149000E9FF6CC0EAFFEF6A000E6B19006E6CC0CA
:1014A00001F0010E00C0DBFF020E01C0DBFF010EE8
:1014B000DBCFE9FF020EDBCFEAFFEF6A000178AF76
:1014C0000CD07B517C1107E005D07CC0FAFF0001F5
:1014D0007B51F96EFADF0001789F030EE15C02E2B6
:1014E000E16AE552E16EE552E7CFD9FF120004014F
:1014F0001051600BE842E842E842E842E842000945
:1015000001E04CD011510C0A48E00B0A43E00C0AF0
:1015100035E0010A26E00B0A22E0020A20E0030A75
:101520001CE0080A10E0010A0CE00F0A08E0030AB8
:1015300001E033D00001738F080E606F2FD0B5D853
:101540002DD04FDB2BD00001610E716F000E726F3A
:101550007381010E746F738F21D0FBD81FD01FD8F9
:101560001DD014510001716F726B620E7127000E55
:1015700072237381010E746F738F10D00001738F0B
:1015800004011451EA6A620FE96E000EEA2212C4E5
:10159000EFFF04D001EC13F001D000D01200D9CF3E
:1015A000E6FFE1CFD9FF050EE1260401120510E1A7
:1015B00010511F0B00090CE10001738F030E040191
:1015C000115D04E10001010E7F6F02D000017F6B0D
:1015D0000401125160E110511F0B02085CE114512B
:1015E0000F0B000958E00001738F040EDB6A020E36
:1015F000F36E040EDBCFF4FFF350F45C4CE2000E0C
:10160000DE6E040EDD6E04011451800B01E0010E4C
:10161000026E14510F0BE8240224040DF3CF00F0E6
:10162000F4CF01F0D9CFE9FFDACFEAFF0050EE2680
:101630000150ED22030E115D07E1DECFE9FFDDCFA2
:10164000EAFF840EEF6E24D014510F0B016A700F65
:10165000006E0F0E0122020E00C0DBFF030E01C060
:10166000DBFF020EDBCFE9FF030EDBCFEAFFEE90DC
:10167000ED5214AF07D0DECFE9FFDDCFEAFF400E19
:10168000EF6E06D0DECFE9FFDDCFEAFFC80EEF6ECA
:10169000040EDB2AACD7050EE15C02E2E16AE552FA
:1016A000E16EE552E7CFD9FF1200800E0401105D14
:1016B0004FE10001C00E736F04011351030A2EE0C5
:1016C000010A0EE0030A03E00001736B41D0000140
:1016D000200E716F270E726F120E746F756B38D0FB
:1016E0001251F66EF76AD890F636F736F10EF626F6
:1016F000270EF7220900F5CF71F00A00F5CF72F03E
:10170000020E0001F76A7125F66E7251F722090088
:10171000F5CF74F00A00F5CF75F01AD01251F66EBD
:10172000F76AD890F636F736F30EF626270EF7222C
:101730000900F5CF71F00A00F5CF72F071C0F6FF25
:1017400072C0F7FF0800F5500001746F756B00D090
:101750001200D9CFE6FFE1CFD9FF020EE126040146
:10176000186B196B10511F0B020A12E0030A0DE0EF
:10177000010A01E034D00001738F040118810001D7
:101780007F0502E1040118832AD00001738F27D05E
:101790000001738F000EDE6E040EDD6E0401145125
:1017A000800B01E0010E026E14510F0BE82402249D
:1017B000040DF3CF00F0F4CF01F0D9CFE9FFDACF79
:1017C000EAFF0050EE260150ED22DECFE9FFDDCF2B
:1017D000EAFFEF50040B02E0010E186F00D0000189
:1017E00073AF07D0180E716F040E726F7381020E03
:1017F000746F020EE15C02E2E16AE552E16EE552CD
:10180000E7CFD9FF12006D98000173BF4AD078AFBF
:1018100028D0020E706F6BC0E9FF6CC0EAFFEE5279
:10182000EF6A6BC0E9FF6CC0EAFFC80EEF6E65C0DF
:10183000E9FF66C0EAFFEE52080EEF6E65C0E9FFF1
:1018400066C0EAFF020EE926000EEA22180EEE6ECE
:10185000040EED6E65C0E9FF66C0EAFFC80EEF6ECC
:101860001FD065C0E9FF66C0EAFFEE52080EEF6EBA
:1018700065C0E9FF66C0EAFF020EE926000EEA2213
:10188000100EEE6E040EED6E65C0E9FF66C0EAFF55
:101890008C0EEF6E6BC0E9FF6CC0EAFF840EEF6E3A
:1018A00083D078BF81D0040110AF56D000017451AD
:1018B0000401165D000175510401175904E216C4B4
:1018C00074F017C475F071D80001010E706F65C017
:1018D000E9FF66C0EAFFEE52080EEF6E65C0E9FF51
:1018E00066C0EAFF020EE926000EEA22100EEE6E36
:1018F000040EED6E65C0E9FF66C0EAFF800EEF6E74
:1019000063C0E9FF64C0EAFFEE52080EEF6E63C0E9
:10191000E9FF64C0EAFF020EE926000EEA22100E7B
:10192000EE6E040EED6E63C0E9FF64C0EAFF800E48
:10193000EF6E6BC0E9FF6CC0EAFF020EE926000EF5
:10194000EA22180EEE6E040EED6E6BC0E9FF6CC05D
:10195000EAFFC80EEF6E28D00001020E706F6BC058
:10196000E9FF6CC0EAFFEE52EF6A6BC0E9FF6CC0A2
:10197000EAFFC80EEF6E65C0E9FF66C0EAFFEE52EF
:10198000080EEF6E65C0E9FF66C0EAFF020EE926A9
:10199000000EEA22180EEE6E040EED6E65C0E9FF31
:1019A00066C0EAFFC80EEF6E1200D9CFE6FFE1CFA6
:1019B000D9FF020EE1260001080E745D000E755974
:1019C0000EE274C0DEFF75C0DDFF6F5103E1010E52
:1019D0006F6F04D06F0502E1020E6F6F03D0080E27
:1019E000DE6EDD6A6BC0E9FF6CC0EAFFEF926BC090
:1019F000E9FF6CC0EAFFEF906BC0E9FF6CC0EAFF43
:101A0000010EDB50EF126BC0E9FF6CC0EAFFEE5233
:101A1000DFCFEFFF000EDB50745F010EDB50755B14
:101A2000180E7D6F040E7E6F73B121D0D9CFE9FF00
:101A3000DACFEAFFEE50ED1019E071C0F6FF72C088
:101A4000F7FF712B000E72230800F550E66E7DC083
:101A5000E9FF7EC0EAFF7D2B000E7E23E552E750B2
:101A6000EF6EDF06010E01E2DB06E0D71FD0D9CF13
:101A7000E9FFDACFEAFFEE50ED1018E071C0E9FFA0
:101A800072C0EAFF712B000E7223EF50E66E7DC02C
:101A9000E9FF7EC0EAFF7D2B000E7E23E552E75072
:101AA000EF6EDF06010E01E2DB06E1D7020EE15C1C
:101AB00002E2E16AE552E16EE552E7CFD9FF12009A
:101AC000D9CFE6FFE1CFD9FF020EE12663C0E9FFDF
:101AD00064C0EAFFEE52EFCFDFFFDFCF00F000502F
:101AE0000001795D000E7A5903E279C0DFFF09D069
:101AF000DF50006E016A0050795D796F01507A59AC
:101B00007A6F010EDB6ADF50F36E010EDBCFF4FF5C
:101B1000F350F45C16E2010EDB50EA6A180FE96E2E
:101B2000040EEA22EF50E66E76C0E9FF77C0EAFFC6
:101B3000762B000E7723E552E750EF6E010EDB2A7D
:101B4000E2D7000ED8807955000E7A5528E265C09C
:101B5000E9FF66C0EAFFEE52080EEF6E65C0E9FFCE
:101B600066C0EAFF020EE926000EEA22180EEE6EAB
:101B7000040EED6E63C0E9FF64C0EAFFEF50400B56
:101B800007E165C0E9FF66C0EAFFC80EEF6E06D048
:101B900065C0E9FF66C0EAFF880EEF6E18D065C029
:101BA000E9FF66C0EAFF020EE926000EEA22100EE7
:101BB000EE6E040EED6E7B517C1107E005D07CC00B
:101BC000FAFF00017B51F96EFADF0001789F020EE7
:101BD000E15C02E2E16AE552E16EE552E7CFD9FF4E
:101BE00012000001738F000EE66EE66AE66A710E5F
:101BF000E66E0F0EE66E4CEC14F0006E050EE15E24
:101C00000050010EE66EE66AE66A620EE66E000EAF
:101C1000E66E4CEC14F0006E050EE15E005012C44E
:101C200061F00401125104E10001100E606F05D053
:101C30000001200E606F02EC13F01200D9CFE6FF16
:101C4000E1CFD9FF020EE126000EDE6E040EDD6E3E
:101C5000FD0EDB50040DF3CF02F0FE0EDB50080D3D
:101C6000F3500224006E016A020E0F0B05E0D890BB
:101C700001320032E806FBE1D89000360136D890F8
:101C800000360136D9CFE9FFDACFEAFF0050EE2661
:101C90000150ED22DECFE9FFDDCFEAFFEF9EFD0E22
:101CA000DB500FE1FE0EEA6ADB34FE0BEA36E96E2A
:101CB000670EE926000EEA22DECFEEFFDDCFEDFF54
:101CC0000ED0FE0EEA6ADB34FE0BEA36E96E6B0ECE
:101CD000E926000EEA22DECFEEFFDDCFEDFFDECFFC
:101CE000E9FFDDCFEAFFEF8C020EE15C02E2E16A80
:101CF000E552E16EE552E7CFD9FF1200D9CFE6FFFA
:101D0000E1CFD9FF020EE126FE0EDB50016A700F13
:101D1000006E0F0E012200C0DEFF01C0DDFFFD0ED0
:101D2000DB50E66EDECFE9FFDDCFEAFFE552E7509C
:101D3000EE6EED6AFD0EDBA407D0E66AFE0EDBCF89
:101D4000E6FF7CDFE552E552FD0EDBA208D0010E76
:101D5000E66EFE0EDBCFE6FF71DFE552E552020EC6
:101D6000E15C02E2E16AE552E16EE552E7CFD9FFBC
:101D70001200D9CFE6FFE1CFD9FF020EE126FE0E19
:101D8000DB5020E165C0E9FF66C0EAFFEE52080EB5
:101D9000EF6E65C0E9FF66C0EAFF020EE926000E9D
:101DA000EA22100EEE6E040EED6E65C0E9FF66C00D
:101DB000EAFF8C0EEF6E6BC0E9FF6CC0EAFF840E89
:101DC000EF6E1DD0FD0EDBCFE6FFFE0EDB50E824EC
:101DD000E552E724040DF3CF00F0F4CF01F0000E3C
:101DE0000026040E012200C0DEFF01C0DDFF840ECC
:101DF000006EDECFE9FFDDCFEAFF0050EF12020EEA
:101E0000E15C02E2E16AE552E16EE552E7CFD9FF1B
:101E10001200D9CFE6FFE1CFD9FF020EE126FD0E79
:101E2000DB500FE0FE0EEA6ADB34FE0BEA36E96EA9
:101E30006B0EE926000EEA22EECFDEFFEDCFDDFFCE
:101E40000ED0FE0EEA6ADB34FE0BEA36E96E670E50
:101E5000E926000EEA22EECFDEFFEDCFDDFFDECF7A
:101E6000E9FFDDCFEAFFEF7CDECFE9FFDDCFEAFF60
:101E7000020EE926000EEA22FB0EDBCFEEFFFC0E7F
:101E8000DBCFEDFFDECFE9FFDDCFEAFFEE52FA0E4A
:101E9000DBCFEFFF400E006EDECFE9FFDDCFEAFFC4
:101EA0000050EF16880E006EDECFE9FFDDCFEAFFAF
:101EB0000050EF12FD0EDB500BE0FE0EEA6ADB3441
:101EC000FE0BEA36E96E6B0EE926000EEA220AD016
:101ED000FE0EEA6ADB34FE0BEA36E96E670EE9268F
:101EE000000EEA22DECF00F0DDCF01F000C0F3FFEC
:101EF00001C0F4FF020EE15C03E200D0E16AE552AA
:101F0000E16EE552E7CFD9FF1200D9CFE6FFE1CF6E
:101F1000D9FF010EF36EFC0EDB5004E0D890F336CF
:101F2000E806FCE1F350E81C006EFD0EDBCFE9FF94
:101F3000FE0EDBCFEAFF0050EF16E552E7CFD9FFE8
:021F400012008D
:0E1F42003F0E9210926E3F0E9310936EC70EDC
:101F50009410946EFF0E9510956E070E9610966E67
:101F60001200D9CFE6FFE1CFD9FF030EE126DE6AEA
:101F7000DD6A870EE66E66EC14F0E552A9EC14F00B
:101F8000A4EC14F0000901E0FBD79BEC14F0F3CFB4
:101F9000DEFFF4CFDDFF020EDB6AD9CFE9FFDACF37
:101FA000EAFFEF50040B040A01E0010E006ED95065
:101FB000020FE96EDACFEAFF0050010BF36EFE0E5E
:101FC000EF14F310EF6ED9CFE9FFDACFEAFFEF504D
:101FD000080B080A01E0010E006ED950020FE96EED
:101FE000DACFEAFF0050010BF36EF346FD0EEF145B
:101FF000F310EF6ED9CFE9FFDACFEAFFEF50100B05
:10200000100A01E0010E006ED950020FE96EDACF1E
:10201000EAFF0050010BF36EF346F346FB0EEF149C
:10202000F310EF6ED9CFE9FFDACFEAFFEF50200BC4
:10203000200A01E0010E006ED950020FE96EDACFDE
:10204000EAFF0050010BF36EF346F346F346F70E3A
:10205000EF14F310EF6ED9CFE9FFDACFEAFFEF50BC
:10206000400B400A01E0010E006ED950020FE96EEC
:10207000DACFEAFF0050010BF36EF346F346F34666
:10208000F346EF0EEF14F310EF6ED9CFE9FFDACF7E
:10209000EAFFEF50800B800A01E0010E006ED9507C
:1020A000020FE96EDACFEAFF0050010BF36EF34640
:1020B000F346F346F346F346DF0EEF14F310EF6EEC
:1020C000D9CFE9FFDACFEAFFEE52EF50010B010A58
:1020D000006ED950020FE96EDACFEAFF0050010B13
:1020E000F36EF346F346F346F346F346F346BF0E6C
:1020F000EF14F310EF6ED9CFE9FFDACFEAFFEE521B
:10210000EF50020B01E0010E006ED950020FE96E94
:10211000DACFEAFF0050010BF36EF346F346F346C5
:10212000F346F346F346F3467F0EEF14F310EF6EDB
:10213000020EDB50006E030EE15C03E200D0E16AA8
:10214000E552E16E0050E552E7CFD9FF1200D9CF3A
:10215000E6FFE1CFD9FF030EE126DE6ADD6A8F0ECE
:10216000E66E66EC14F0E552A9EC14F0A4EC14F061
:10217000000901E0FBD79BEC14F0F3CFDEFFF4CFB6
:10218000DDFF020EDB6ADB6AD9CFE9FFDACFEAFFB7
:10219000EF50040B040A01E0010E006ED950020F4B
:1021A000E96EDACFEAFF0050010BF36EFE0EEF147A
:1021B000F310EF6ED9CFE9FFDACFEAFFEF50080B4B
:1021C000080A01E0010E006ED950020FE96EDACF65
:1021D000EAFF0050010BF36EF346FD0EEF14F3100F
:1021E000EF6ED9CFE9FFDACFEAFFEF50100B100AFC
:1021F00001E0010E006ED950020FE96EDACFEAFF5E
:102200000050010BF36EF346F346FB0EEF14F31090
:10221000EF6ED9CFE9FFDACFEAFFEF50200B200AAB
:1022200001E0010E006ED950020FE96EDACFEAFF2D
:102230000050010BF36EF346F346F346F70EEF142E
:10224000F310EF6ED9CFE9FFDACFEAFFEF50400B82
:10225000400A01E0010E006ED950020FE96EDACF9C
:10226000EAFF0050010BF36EF346F346F346F346E4
:10227000EF0EEF14F310EF6ED9CFE9FFDACFEAFFDC
:10228000EF50800B800A01E0010E006ED950020F62
:10229000E96EDACFEAFF0050010BF36EF346F34626
:1022A000F346F346F346DF0EEF14F310EF6ED9CF8B
:1022B000E9FFDACFEAFFEE52EF50010B010A006EA0
:1022C000D950020FE96EDACFEAFF0050010BF36E2E
:1022D000F346F346F346F346F346F346BF0EEF14D8
:1022E000F310EF6ED9CFE9FFDACFEAFFEE52EF50ED
:1022F000020B01E0010E006ED950020FE96EDACF39
:10230000EAFF0050010BF36EF346F346F346F34643
:10231000F346F346F3467F0EEF14F310EF6E006EB4
:10232000030EE15C02E2E16AE552E16E0050E55223
:10233000E7CFD9FF120082BE02D07F0E06D083BE47
:1023400002D0800E02D0000E00D0120083BA02D05C
:102350007F0E06D083BC02D0800E02D0000E00D0CB
:10236000120083B802D07F0E06D082BC02D0800E4D
:1023700002D0000E00D0120083B602D07F0E06D02D
:1023800083B402D0800E02D0000E00D01200D9CF4C
:10239000E6FFE1CFD9FFE652DF6A81A6DF2A81B4EA
:1023A00002D0020EDF2681BA02D0040EDF2681B8E9
:1023B00002D0080EDF2680B602D0100EDF2680B4D1
:1023C00002D0200EDF2680B202D0400EDF2680B081
:1023D00002D0800EDF26DF5000D0E552E552E7CF75
:1023E000D9FF1200D9CFE6FFE1CFD9FFE652DF6A6D
:1023F00081A0DF2A81B202D0020EDF2682B202D093
:10240000040EDF2682B002D0080EDF2680BA02D08A
:10241000100EDF2680B802D0200EDF2682B402D054
:10242000400EDF2683B002D0800EDF26DF5000D0C2
:10243000E552E552E7CFD9FF1200D9CFE6FFE1CF51
:10244000D9FFE652DF6A83A2DF2A84B402D0020EEB
:10245000DF2684B202D0040EDF2684B002D0080E3C
:10246000DF26DF5000D0E552E552E7CFD9FF12005A
:10247000DACFE4FFE2CFDAFFE652E552E5CFDAFF4A
:102480001100D8CFE4FFE0CFE4FFE46EDACFE4FF41
:10249000E2CFDAFFE652E552E5CFDAFFE550E5CFCD
:1024A000E0FFE5CFD8FF100007D8A1EC0FF072ECE9
:1024B00008F024D8FCD712000F0EC1121CEC08F053
:1024C00062EF12F0F00E8C1695169388938A815065
:1024D000100B01E0010E0001856F8150200B01E01F
:1024E000010E866F8D6B8DC08BF08DC08AF08DC014
:1024F00089F0010E876F906B916B1200200E000126
:10250000605D03E36D50020B01E001D001D81200C1
:102510009BEC11F00001896FA6EC11F000018A6FAD
:10252000B1EC11F000018B6FBCEC11F000018C6F6D
:10253000C7EC11F000018D6FF2EC11F000018E6F0D
:102540001DEC12F000018F6F9051911102E1000E0D
:1025500008D090C0E9FF91C0EAFFEF50800B01E086
:10256000010E000921E189C024F48AC025F48BC042
:1025700026F48CC027F48DC028F48EC029F48FC0B7
:102580002AF4070EE66E240EE66E040EE66E010EC9
:10259000E66EE66E09EC0FF0006E050EE15E00508F
:1025A000F3CF90F0F4CF91F012008150100B01E0C6
:1025B000010E0001855D09E08150100B01E0010E64
:1025C000856F81B802D0010E02D0000E00D012003B
:1025D0008150200B01E0010E0001865D09E0815071
:1025E000200B01E0010E866F81BA02D0010E02D0ED
:1025F000000E00D01200120012001200120019EF9B
:1026000013F012001A0EE66E010EE66E7EEC0EF06E
:10261000E552E55212006D840001080E926F070E1C
:10262000936F9207000E935B92519311FAE16D94B0
:02263000120096
:0E263200040110511F0B010801E06DD014517E
:1026400001E06AD0060E115D28E11351230A21E052
:10265000010A11E0030A01E020D0000161050AE14E
:102660000001440E716F270E726F090E746F756B47
:10267000C00E736F12D0000161050AE10001BA0EAD
:10268000716F270E726F370E746F756BC00E736F9C
:1026900004D00001800E736F00D004011051600B54
:1026A000E842E842E842E842E842010801E034D06A
:1026B00011510B0A2BE0080A1EE0090A16E0080A6D
:1026C00009E00B0A05E0080A01E026D026D824D04C
:1026D00025D822D000019E0E716F000E726F010E80
:1026E000746F756BC10E736F17D00001800E736F1E
:1026F00013C49EF011D000019F0E716F000E726F17
:10270000010E746F756B810E736F06D00001800E21
:10271000736F12C49FF000D012001200120012005A
:102720001201000200000008D804FA80120301021E
:102730000001090222000101000132090400000128
:102740000300000009211101000122370007058163
:1027500003070001040309043403480075006700FF
:102760006F007400200020005000690063006800C2
:102770006F006E00200066006F00720020004100B4
:102780007200650073002E002E002E002E034A00FA
:102790006F0079007000610064002000310061006A
:1027A0006E006C006F0067002000310030002000D8
:1027B0006200740031002E00300005010905A101FE
:1027C0000904A10009300931093209331580257F38
:1027D00046FF006500750895048102C005091901CE
:1027E000291815002501750195185500650081000F
:0927F000C03227542758278C271A
:0127F90000DF
:0627FA002A0EF66E100E1F
:10280000F76E000EF86E00010900F550996F09008F
:10281000F5509A6F03E1996701D03DD00900F5505A
:10282000946F0900F550956F0900F550966F0900F7
:102830000900F550E96E0900F550EA6E090009003B
:102840000900F550976F0900F550986F09000900CD
:10285000F6CF9BF0F7CF9CF0F8CF9DF094C0F6FF39
:1028600095C0F7FF96C0F8FF0001975302E1985317
:1028700007E00900F550EE6E9707F8E29807F9D7E0
:102880009BC0F6FF9CC0F7FF9DC0F8FF00019907B1
:08289000000E9A5BBFD7120095
:08289800FE0EE3CFE9FFFF0E85
:1028A000E3CFEAFFE9CFF3FFEACFF4FFFB0EE350FB
:1028B00003E1FC0EE35009E0FB0EE30602E2FC0E2E
:0C28C000E306FD0EE350EE6EF1D71200AF
:0428CC00D9CFE6FF7B
:1028D000DACFE6FFE1CFD9FFE2CFDAFFC30EC214B1
:1028E000006EFD0EDB407F0B3C0B0010C26EE5520C
:0A28F000E5CFDAFFE7CFD9FF1200B1
:0628FA00000EF36E00EE7B
:1029000000F0080E01D81200EA6002D0EE6AFCD78F
:0A291000F350E9601200EE6AFCD7F4
:06291A0013EE00F023EEB5
:1029200000F0F86A059CFDEC13F0ABEC14F054ECED
:0629300012F0FBD71200BB
:0A293600C450036E026AC350021081
:08294000F36E03C0F4FF120066
:08294800C250020B01E0010E78
:02295000120073
:04295200C28212002B
:0229560012006D
:020000040030CA
:0100000020DF
:010001000EF0
:010002003FBE
:010003001EDE
:010005008179
:010006008178
:010008000FE8
:01000900C036
:01000A000FE6
:01000B00E014
:01000C000FE4
:01000D0040B2
:00000001FF
